{
	"declare.sol": {
		"SimpleContract": {
			"abi": [
				{
					"inputs": [],
					"name": "flag",
					"outputs": [
						{
							"internalType": "bool",
							"name": "",
							"type": "bool"
						}
					],
					"stateMutability": "view",
					"type": "function"
				},
				{
					"inputs": [],
					"name": "getFlag",
					"outputs": [
						{
							"internalType": "bool",
							"name": "",
							"type": "bool"
						}
					],
					"stateMutability": "view",
					"type": "function"
				},
				{
					"inputs": [],
					"name": "getNumber",
					"outputs": [
						{
							"internalType": "uint256",
							"name": "",
							"type": "uint256"
						}
					],
					"stateMutability": "view",
					"type": "function"
				},
				{
					"inputs": [],
					"name": "getText",
					"outputs": [
						{
							"internalType": "string",
							"name": "",
							"type": "string"
						}
					],
					"stateMutability": "view",
					"type": "function"
				},
				{
					"inputs": [],
					"name": "getUser",
					"outputs": [
						{
							"internalType": "address",
							"name": "",
							"type": "address"
						}
					],
					"stateMutability": "view",
					"type": "function"
				},
				{
					"inputs": [],
					"name": "number",
					"outputs": [
						{
							"internalType": "uint256",
							"name": "",
							"type": "uint256"
						}
					],
					"stateMutability": "view",
					"type": "function"
				},
				{
					"inputs": [
						{
							"internalType": "bool",
							"name": "_flag",
							"type": "bool"
						}
					],
					"name": "setFlag",
					"outputs": [
						{
							"internalType": "bool",
							"name": "",
							"type": "bool"
						}
					],
					"stateMutability": "nonpayable",
					"type": "function"
				},
				{
					"inputs": [
						{
							"internalType": "uint256",
							"name": "_number",
							"type": "uint256"
						}
					],
					"name": "setNumber",
					"outputs": [
						{
							"internalType": "uint256",
							"name": "",
							"type": "uint256"
						}
					],
					"stateMutability": "nonpayable",
					"type": "function"
				},
				{
					"inputs": [
						{
							"internalType": "string",
							"name": "_text",
							"type": "string"
						}
					],
					"name": "setText",
					"outputs": [
						{
							"internalType": "string",
							"name": "",
							"type": "string"
						}
					],
					"stateMutability": "nonpayable",
					"type": "function"
				},
				{
					"inputs": [
						{
							"internalType": "address",
							"name": "_user",
							"type": "address"
						}
					],
					"name": "setUser",
					"outputs": [
						{
							"internalType": "address",
							"name": "",
							"type": "address"
						}
					],
					"stateMutability": "nonpayable",
					"type": "function"
				},
				{
					"inputs": [],
					"name": "text",
					"outputs": [
						{
							"internalType": "string",
							"name": "",
							"type": "string"
						}
					],
					"stateMutability": "view",
					"type": "function"
				},
				{
					"inputs": [],
					"name": "user",
					"outputs": [
						{
							"internalType": "address",
							"name": "",
							"type": "address"
						}
					],
					"stateMutability": "view",
					"type": "function"
				}
			],
			"devdoc": {
				"kind": "dev",
				"methods": {},
				"version": 1
			},
			"evm": {
				"assembly": "    /* \"declare.sol\":64:1537  contract SimpleContract {... */\n  mstore(0x40, 0x80)\n  callvalue\n  dup1\n  iszero\n  tag_1\n  jumpi\n  0x00\n  dup1\n  revert\ntag_1:\n  pop\n  dataSize(sub_0)\n  dup1\n  dataOffset(sub_0)\n  0x00\n  codecopy\n  0x00\n  return\nstop\n\nsub_0: assembly {\n        /* \"declare.sol\":64:1537  contract SimpleContract {... */\n      mstore(0x40, 0x80)\n      callvalue\n      dup1\n      iszero\n      tag_1\n      jumpi\n      0x00\n      dup1\n      revert\n    tag_1:\n      pop\n      jumpi(tag_2, lt(calldatasize, 0x04))\n      shr(0xe0, calldataload(0x00))\n      dup1\n      0x8381f58a\n      gt\n      tag_15\n      jumpi\n      dup1\n      0x8381f58a\n      eq\n      tag_9\n      jumpi\n      dup1\n      0x858ced35\n      eq\n      tag_10\n      jumpi\n      dup1\n      0x890eba68\n      eq\n      tag_11\n      jumpi\n      dup1\n      0xe00fe2eb\n      eq\n      tag_12\n      jumpi\n      dup1\n      0xf2c9ecd8\n      eq\n      tag_13\n      jumpi\n      dup1\n      0xf9633930\n      eq\n      tag_14\n      jumpi\n      jump(tag_2)\n    tag_15:\n      dup1\n      0x1f1bd692\n      eq\n      tag_3\n      jumpi\n      dup1\n      0x3927f6af\n      eq\n      tag_4\n      jumpi\n      dup1\n      0x3fb5c1cb\n      eq\n      tag_5\n      jumpi\n      dup1\n      0x4f8632ba\n      eq\n      tag_6\n      jumpi\n      dup1\n      0x5d3a1f9d\n      eq\n      tag_7\n      jumpi\n      dup1\n      0x832880e7\n      eq\n      tag_8\n      jumpi\n    tag_2:\n      0x00\n      dup1\n      revert\n        /* \"declare.sol\":172:190  string public text */\n    tag_3:\n      tag_16\n      tag_17\n      jump\t// in\n    tag_16:\n      mload(0x40)\n      tag_18\n      swap2\n      swap1\n      tag_19\n      jump\t// in\n    tag_18:\n      mload(0x40)\n      dup1\n      swap2\n      sub\n      swap1\n      return\n        /* \"declare.sol\":970:1074  function setFlag(bool _flag) public returns (bool) {... */\n    tag_4:\n      tag_20\n      0x04\n      dup1\n      calldatasize\n      sub\n      dup2\n      add\n      swap1\n      tag_21\n      swap2\n      swap1\n      tag_22\n      jump\t// in\n    tag_21:\n      tag_23\n      jump\t// in\n    tag_20:\n      mload(0x40)\n      tag_24\n      swap2\n      swap1\n      tag_25\n      jump\t// in\n    tag_24:\n      mload(0x40)\n      dup1\n      swap2\n      sub\n      swap1\n      return\n        /* \"declare.sol\":307:421  function setNumber(uint _number) public returns (uint) {... */\n    tag_5:\n      tag_26\n      0x04\n      dup1\n      calldatasize\n      sub\n      dup2\n      add\n      swap1\n      tag_27\n      swap2\n      swap1\n      tag_28\n      jump\t// in\n    tag_27:\n      tag_29\n      jump\t// in\n    tag_26:\n      mload(0x40)\n      tag_30\n      swap2\n      swap1\n      tag_31\n      jump\t// in\n    tag_30:\n      mload(0x40)\n      dup1\n      swap2\n      sub\n      swap1\n      return\n        /* \"declare.sol\":220:239  address public user */\n    tag_6:\n      tag_32\n      tag_33\n      jump\t// in\n    tag_32:\n      mload(0x40)\n      tag_34\n      swap2\n      swap1\n      tag_35\n      jump\t// in\n    tag_34:\n      mload(0x40)\n      dup1\n      swap2\n      sub\n      swap1\n      return\n        /* \"declare.sol\":633:755  function setText(string memory _text) public returns (string memory) {... */\n    tag_7:\n      tag_36\n      0x04\n      dup1\n      calldatasize\n      sub\n      dup2\n      add\n      swap1\n      tag_37\n      swap2\n      swap1\n      tag_38\n      jump\t// in\n    tag_37:\n      tag_39\n      jump\t// in\n    tag_36:\n      mload(0x40)\n      tag_40\n      swap2\n      swap1\n      tag_19\n      jump\t// in\n    tag_40:\n      mload(0x40)\n      dup1\n      swap2\n      sub\n      swap1\n      return\n        /* \"declare.sol\":1455:1534  function getUser() public view returns (address) {... */\n    tag_8:\n      tag_41\n      tag_42\n      jump\t// in\n    tag_41:\n      mload(0x40)\n      tag_43\n      swap2\n      swap1\n      tag_35\n      jump\t// in\n    tag_43:\n      mload(0x40)\n      dup1\n      swap2\n      sub\n      swap1\n      return\n        /* \"declare.sol\":147:165  uint public number */\n    tag_9:\n      tag_44\n      tag_45\n      jump\t// in\n    tag_44:\n      mload(0x40)\n      tag_46\n      swap2\n      swap1\n      tag_31\n      jump\t// in\n    tag_46:\n      mload(0x40)\n      dup1\n      swap2\n      sub\n      swap1\n      return\n        /* \"declare.sol\":1280:1390  function setUser(address _user) public returns (address) {... */\n    tag_10:\n      tag_47\n      0x04\n      dup1\n      calldatasize\n      sub\n      dup2\n      add\n      swap1\n      tag_48\n      swap2\n      swap1\n      tag_49\n      jump\t// in\n    tag_48:\n      tag_50\n      jump\t// in\n    tag_47:\n      mload(0x40)\n      tag_51\n      swap2\n      swap1\n      tag_35\n      jump\t// in\n    tag_51:\n      mload(0x40)\n      dup1\n      swap2\n      sub\n      swap1\n      return\n        /* \"declare.sol\":197:213  bool public flag */\n    tag_11:\n      tag_52\n      tag_53\n      jump\t// in\n    tag_52:\n      mload(0x40)\n      tag_54\n      swap2\n      swap1\n      tag_25\n      jump\t// in\n    tag_54:\n      mload(0x40)\n      dup1\n      swap2\n      sub\n      swap1\n      return\n        /* \"declare.sol\":820:905  function getText() public view returns (string memory) {... */\n    tag_12:\n      tag_55\n      tag_56\n      jump\t// in\n    tag_55:\n      mload(0x40)\n      tag_57\n      swap2\n      swap1\n      tag_19\n      jump\t// in\n    tag_57:\n      mload(0x40)\n      dup1\n      swap2\n      sub\n      swap1\n      return\n        /* \"declare.sol\":488:568  function getNumber() public view returns (uint) {... */\n    tag_13:\n      tag_58\n      tag_59\n      jump\t// in\n    tag_58:\n      mload(0x40)\n      tag_60\n      swap2\n      swap1\n      tag_31\n      jump\t// in\n    tag_60:\n      mload(0x40)\n      dup1\n      swap2\n      sub\n      swap1\n      return\n        /* \"declare.sol\":1139:1215  function getFlag() public view returns (bool) {... */\n    tag_14:\n      tag_61\n      tag_62\n      jump\t// in\n    tag_61:\n      mload(0x40)\n      tag_63\n      swap2\n      swap1\n      tag_25\n      jump\t// in\n    tag_63:\n      mload(0x40)\n      dup1\n      swap2\n      sub\n      swap1\n      return\n        /* \"declare.sol\":172:190  string public text */\n    tag_17:\n      0x01\n      dup1\n      sload\n      tag_64\n      swap1\n      tag_65\n      jump\t// in\n    tag_64:\n      dup1\n      0x1f\n      add\n      0x20\n      dup1\n      swap2\n      div\n      mul\n      0x20\n      add\n      mload(0x40)\n      swap1\n      dup2\n      add\n      0x40\n      mstore\n      dup1\n      swap3\n      swap2\n      swap1\n      dup2\n      dup2\n      mstore\n      0x20\n      add\n      dup3\n      dup1\n      sload\n      tag_66\n      swap1\n      tag_65\n      jump\t// in\n    tag_66:\n      dup1\n      iszero\n      tag_67\n      jumpi\n      dup1\n      0x1f\n      lt\n      tag_68\n      jumpi\n      0x0100\n      dup1\n      dup4\n      sload\n      div\n      mul\n      dup4\n      mstore\n      swap2\n      0x20\n      add\n      swap2\n      jump(tag_67)\n    tag_68:\n      dup3\n      add\n      swap2\n      swap1\n      0x00\n      mstore\n      keccak256(0x00, 0x20)\n      swap1\n    tag_69:\n      dup2\n      sload\n      dup2\n      mstore\n      swap1\n      0x01\n      add\n      swap1\n      0x20\n      add\n      dup1\n      dup4\n      gt\n      tag_69\n      jumpi\n      dup3\n      swap1\n      sub\n      0x1f\n      and\n      dup3\n      add\n      swap2\n    tag_67:\n      pop\n      pop\n      pop\n      pop\n      pop\n      dup2\n      jump\t// out\n        /* \"declare.sol\":970:1074  function setFlag(bool _flag) public returns (bool) {... */\n    tag_23:\n        /* \"declare.sol\":1015:1019  bool */\n      0x00\n        /* \"declare.sol\":1039:1044  _flag */\n      dup2\n        /* \"declare.sol\":1032:1036  flag */\n      0x02\n      0x00\n        /* \"declare.sol\":1032:1044  flag = _flag */\n      0x0100\n      exp\n      dup2\n      sload\n      dup2\n      0xff\n      mul\n      not\n      and\n      swap1\n      dup4\n      iszero\n      iszero\n      mul\n      or\n      swap1\n      sstore\n      pop\n        /* \"declare.sol\":1062:1066  flag */\n      0x02\n      0x00\n      swap1\n      sload\n      swap1\n      0x0100\n      exp\n      swap1\n      div\n      0xff\n      and\n        /* \"declare.sol\":1055:1066  return flag */\n      swap1\n      pop\n        /* \"declare.sol\":970:1074  function setFlag(bool _flag) public returns (bool) {... */\n      swap2\n      swap1\n      pop\n      jump\t// out\n        /* \"declare.sol\":307:421  function setNumber(uint _number) public returns (uint) {... */\n    tag_29:\n        /* \"declare.sol\":356:360  uint */\n      0x00\n        /* \"declare.sol\":382:389  _number */\n      dup2\n        /* \"declare.sol\":373:379  number */\n      0x00\n        /* \"declare.sol\":373:389  number = _number */\n      dup2\n      swap1\n      sstore\n      pop\n        /* \"declare.sol\":407:413  number */\n      sload(0x00)\n        /* \"declare.sol\":400:413  return number */\n      swap1\n      pop\n        /* \"declare.sol\":307:421  function setNumber(uint _number) public returns (uint) {... */\n      swap2\n      swap1\n      pop\n      jump\t// out\n        /* \"declare.sol\":220:239  address public user */\n    tag_33:\n      0x02\n      0x01\n      swap1\n      sload\n      swap1\n      0x0100\n      exp\n      swap1\n      div\n      0xffffffffffffffffffffffffffffffffffffffff\n      and\n      dup2\n      jump\t// out\n        /* \"declare.sol\":633:755  function setText(string memory _text) public returns (string memory) {... */\n    tag_39:\n        /* \"declare.sol\":687:700  string memory */\n      0x60\n        /* \"declare.sol\":720:725  _text */\n      dup2\n        /* \"declare.sol\":713:717  text */\n      0x01\n        /* \"declare.sol\":713:725  text = _text */\n      swap1\n      dup2\n      tag_73\n      swap2\n      swap1\n      tag_74\n      jump\t// in\n    tag_73:\n      pop\n        /* \"declare.sol\":743:747  text */\n      0x01\n        /* \"declare.sol\":736:747  return text */\n      dup1\n      sload\n      tag_75\n      swap1\n      tag_65\n      jump\t// in\n    tag_75:\n      dup1\n      0x1f\n      add\n      0x20\n      dup1\n      swap2\n      div\n      mul\n      0x20\n      add\n      mload(0x40)\n      swap1\n      dup2\n      add\n      0x40\n      mstore\n      dup1\n      swap3\n      swap2\n      swap1\n      dup2\n      dup2\n      mstore\n      0x20\n      add\n      dup3\n      dup1\n      sload\n      tag_76\n      swap1\n      tag_65\n      jump\t// in\n    tag_76:\n      dup1\n      iszero\n      tag_77\n      jumpi\n      dup1\n      0x1f\n      lt\n      tag_78\n      jumpi\n      0x0100\n      dup1\n      dup4\n      sload\n      div\n      mul\n      dup4\n      mstore\n      swap2\n      0x20\n      add\n      swap2\n      jump(tag_77)\n    tag_78:\n      dup3\n      add\n      swap2\n      swap1\n      0x00\n      mstore\n      keccak256(0x00, 0x20)\n      swap1\n    tag_79:\n      dup2\n      sload\n      dup2\n      mstore\n      swap1\n      0x01\n      add\n      swap1\n      0x20\n      add\n      dup1\n      dup4\n      gt\n      tag_79\n      jumpi\n      dup3\n      swap1\n      sub\n      0x1f\n      and\n      dup3\n      add\n      swap2\n    tag_77:\n      pop\n      pop\n      pop\n      pop\n      pop\n      swap1\n      pop\n        /* \"declare.sol\":633:755  function setText(string memory _text) public returns (string memory) {... */\n      swap2\n      swap1\n      pop\n      jump\t// out\n        /* \"declare.sol\":1455:1534  function getUser() public view returns (address) {... */\n    tag_42:\n        /* \"declare.sol\":1495:1502  address */\n      0x00\n        /* \"declare.sol\":1522:1526  user */\n      0x02\n      0x01\n      swap1\n      sload\n      swap1\n      0x0100\n      exp\n      swap1\n      div\n      0xffffffffffffffffffffffffffffffffffffffff\n      and\n        /* \"declare.sol\":1515:1526  return user */\n      swap1\n      pop\n        /* \"declare.sol\":1455:1534  function getUser() public view returns (address) {... */\n      swap1\n      jump\t// out\n        /* \"declare.sol\":147:165  uint public number */\n    tag_45:\n      sload(0x00)\n      dup2\n      jump\t// out\n        /* \"declare.sol\":1280:1390  function setUser(address _user) public returns (address) {... */\n    tag_50:\n        /* \"declare.sol\":1328:1335  address */\n      0x00\n        /* \"declare.sol\":1355:1360  _user */\n      dup2\n        /* \"declare.sol\":1348:1352  user */\n      0x02\n      0x01\n        /* \"declare.sol\":1348:1360  user = _user */\n      0x0100\n      exp\n      dup2\n      sload\n      dup2\n      0xffffffffffffffffffffffffffffffffffffffff\n      mul\n      not\n      and\n      swap1\n      dup4\n      0xffffffffffffffffffffffffffffffffffffffff\n      and\n      mul\n      or\n      swap1\n      sstore\n      pop\n        /* \"declare.sol\":1378:1382  user */\n      0x02\n      0x01\n      swap1\n      sload\n      swap1\n      0x0100\n      exp\n      swap1\n      div\n      0xffffffffffffffffffffffffffffffffffffffff\n      and\n        /* \"declare.sol\":1371:1382  return user */\n      swap1\n      pop\n        /* \"declare.sol\":1280:1390  function setUser(address _user) public returns (address) {... */\n      swap2\n      swap1\n      pop\n      jump\t// out\n        /* \"declare.sol\":197:213  bool public flag */\n    tag_53:\n      0x02\n      0x00\n      swap1\n      sload\n      swap1\n      0x0100\n      exp\n      swap1\n      div\n      0xff\n      and\n      dup2\n      jump\t// out\n        /* \"declare.sol\":820:905  function getText() public view returns (string memory) {... */\n    tag_56:\n        /* \"declare.sol\":860:873  string memory */\n      0x60\n        /* \"declare.sol\":893:897  text */\n      0x01\n        /* \"declare.sol\":886:897  return text */\n      dup1\n      sload\n      tag_83\n      swap1\n      tag_65\n      jump\t// in\n    tag_83:\n      dup1\n      0x1f\n      add\n      0x20\n      dup1\n      swap2\n      div\n      mul\n      0x20\n      add\n      mload(0x40)\n      swap1\n      dup2\n      add\n      0x40\n      mstore\n      dup1\n      swap3\n      swap2\n      swap1\n      dup2\n      dup2\n      mstore\n      0x20\n      add\n      dup3\n      dup1\n      sload\n      tag_84\n      swap1\n      tag_65\n      jump\t// in\n    tag_84:\n      dup1\n      iszero\n      tag_85\n      jumpi\n      dup1\n      0x1f\n      lt\n      tag_86\n      jumpi\n      0x0100\n      dup1\n      dup4\n      sload\n      div\n      mul\n      dup4\n      mstore\n      swap2\n      0x20\n      add\n      swap2\n      jump(tag_85)\n    tag_86:\n      dup3\n      add\n      swap2\n      swap1\n      0x00\n      mstore\n      keccak256(0x00, 0x20)\n      swap1\n    tag_87:\n      dup2\n      sload\n      dup2\n      mstore\n      swap1\n      0x01\n      add\n      swap1\n      0x20\n      add\n      dup1\n      dup4\n      gt\n      tag_87\n      jumpi\n      dup3\n      swap1\n      sub\n      0x1f\n      and\n      dup3\n      add\n      swap2\n    tag_85:\n      pop\n      pop\n      pop\n      pop\n      pop\n      swap1\n      pop\n        /* \"declare.sol\":820:905  function getText() public view returns (string memory) {... */\n      swap1\n      jump\t// out\n        /* \"declare.sol\":488:568  function getNumber() public view returns (uint) {... */\n    tag_59:\n        /* \"declare.sol\":530:534  uint */\n      0x00\n        /* \"declare.sol\":554:560  number */\n      dup1\n      sload\n        /* \"declare.sol\":547:560  return number */\n      swap1\n      pop\n        /* \"declare.sol\":488:568  function getNumber() public view returns (uint) {... */\n      swap1\n      jump\t// out\n        /* \"declare.sol\":1139:1215  function getFlag() public view returns (bool) {... */\n    tag_62:\n        /* \"declare.sol\":1179:1183  bool */\n      0x00\n        /* \"declare.sol\":1203:1207  flag */\n      0x02\n      0x00\n      swap1\n      sload\n      swap1\n      0x0100\n      exp\n      swap1\n      div\n      0xff\n      and\n        /* \"declare.sol\":1196:1207  return flag */\n      swap1\n      pop\n        /* \"declare.sol\":1139:1215  function getFlag() public view returns (bool) {... */\n      swap1\n      jump\t// out\n        /* \"#utility.yul\":7:106   */\n    tag_90:\n        /* \"#utility.yul\":59:65   */\n      0x00\n        /* \"#utility.yul\":93:98   */\n      dup2\n        /* \"#utility.yul\":87:99   */\n      mload\n        /* \"#utility.yul\":77:99   */\n      swap1\n      pop\n        /* \"#utility.yul\":7:106   */\n      swap2\n      swap1\n      pop\n      jump\t// out\n        /* \"#utility.yul\":112:281   */\n    tag_91:\n        /* \"#utility.yul\":196:207   */\n      0x00\n        /* \"#utility.yul\":230:236   */\n      dup3\n        /* \"#utility.yul\":225:228   */\n      dup3\n        /* \"#utility.yul\":218:237   */\n      mstore\n        /* \"#utility.yul\":270:274   */\n      0x20\n        /* \"#utility.yul\":265:268   */\n      dup3\n        /* \"#utility.yul\":261:275   */\n      add\n        /* \"#utility.yul\":246:275   */\n      swap1\n      pop\n        /* \"#utility.yul\":112:281   */\n      swap3\n      swap2\n      pop\n      pop\n      jump\t// out\n        /* \"#utility.yul\":287:426   */\n    tag_92:\n        /* \"#utility.yul\":376:382   */\n      dup3\n        /* \"#utility.yul\":371:374   */\n      dup2\n        /* \"#utility.yul\":366:369   */\n      dup4\n        /* \"#utility.yul\":360:383   */\n      mcopy\n        /* \"#utility.yul\":417:418   */\n      0x00\n        /* \"#utility.yul\":408:414   */\n      dup4\n        /* \"#utility.yul\":403:406   */\n      dup4\n        /* \"#utility.yul\":399:415   */\n      add\n        /* \"#utility.yul\":392:419   */\n      mstore\n        /* \"#utility.yul\":287:426   */\n      pop\n      pop\n      pop\n      jump\t// out\n        /* \"#utility.yul\":432:534   */\n    tag_93:\n        /* \"#utility.yul\":473:479   */\n      0x00\n        /* \"#utility.yul\":524:526   */\n      0x1f\n        /* \"#utility.yul\":520:527   */\n      not\n        /* \"#utility.yul\":515:517   */\n      0x1f\n        /* \"#utility.yul\":508:513   */\n      dup4\n        /* \"#utility.yul\":504:518   */\n      add\n        /* \"#utility.yul\":500:528   */\n      and\n        /* \"#utility.yul\":490:528   */\n      swap1\n      pop\n        /* \"#utility.yul\":432:534   */\n      swap2\n      swap1\n      pop\n      jump\t// out\n        /* \"#utility.yul\":540:917   */\n    tag_94:\n        /* \"#utility.yul\":628:631   */\n      0x00\n        /* \"#utility.yul\":656:695   */\n      tag_142\n        /* \"#utility.yul\":689:694   */\n      dup3\n        /* \"#utility.yul\":656:695   */\n      tag_90\n      jump\t// in\n    tag_142:\n        /* \"#utility.yul\":711:782   */\n      tag_143\n        /* \"#utility.yul\":775:781   */\n      dup2\n        /* \"#utility.yul\":770:773   */\n      dup6\n        /* \"#utility.yul\":711:782   */\n      tag_91\n      jump\t// in\n    tag_143:\n        /* \"#utility.yul\":704:782   */\n      swap4\n      pop\n        /* \"#utility.yul\":791:856   */\n      tag_144\n        /* \"#utility.yul\":849:855   */\n      dup2\n        /* \"#utility.yul\":844:847   */\n      dup6\n        /* \"#utility.yul\":837:841   */\n      0x20\n        /* \"#utility.yul\":830:835   */\n      dup7\n        /* \"#utility.yul\":826:842   */\n      add\n        /* \"#utility.yul\":791:856   */\n      tag_92\n      jump\t// in\n    tag_144:\n        /* \"#utility.yul\":881:910   */\n      tag_145\n        /* \"#utility.yul\":903:909   */\n      dup2\n        /* \"#utility.yul\":881:910   */\n      tag_93\n      jump\t// in\n    tag_145:\n        /* \"#utility.yul\":876:879   */\n      dup5\n        /* \"#utility.yul\":872:911   */\n      add\n        /* \"#utility.yul\":865:911   */\n      swap2\n      pop\n        /* \"#utility.yul\":632:917   */\n      pop\n        /* \"#utility.yul\":540:917   */\n      swap3\n      swap2\n      pop\n      pop\n      jump\t// out\n        /* \"#utility.yul\":923:1236   */\n    tag_19:\n        /* \"#utility.yul\":1036:1040   */\n      0x00\n        /* \"#utility.yul\":1074:1076   */\n      0x20\n        /* \"#utility.yul\":1063:1072   */\n      dup3\n        /* \"#utility.yul\":1059:1077   */\n      add\n        /* \"#utility.yul\":1051:1077   */\n      swap1\n      pop\n        /* \"#utility.yul\":1123:1132   */\n      dup2\n        /* \"#utility.yul\":1117:1121   */\n      dup2\n        /* \"#utility.yul\":1113:1133   */\n      sub\n        /* \"#utility.yul\":1109:1110   */\n      0x00\n        /* \"#utility.yul\":1098:1107   */\n      dup4\n        /* \"#utility.yul\":1094:1111   */\n      add\n        /* \"#utility.yul\":1087:1134   */\n      mstore\n        /* \"#utility.yul\":1151:1229   */\n      tag_147\n        /* \"#utility.yul\":1224:1228   */\n      dup2\n        /* \"#utility.yul\":1215:1221   */\n      dup5\n        /* \"#utility.yul\":1151:1229   */\n      tag_94\n      jump\t// in\n    tag_147:\n        /* \"#utility.yul\":1143:1229   */\n      swap1\n      pop\n        /* \"#utility.yul\":923:1236   */\n      swap3\n      swap2\n      pop\n      pop\n      jump\t// out\n        /* \"#utility.yul\":1242:1317   */\n    tag_95:\n        /* \"#utility.yul\":1275:1281   */\n      0x00\n        /* \"#utility.yul\":1308:1310   */\n      0x40\n        /* \"#utility.yul\":1302:1311   */\n      mload\n        /* \"#utility.yul\":1292:1311   */\n      swap1\n      pop\n        /* \"#utility.yul\":1242:1317   */\n      swap1\n      jump\t// out\n        /* \"#utility.yul\":1323:1440   */\n    tag_96:\n        /* \"#utility.yul\":1432:1433   */\n      0x00\n        /* \"#utility.yul\":1429:1430   */\n      dup1\n        /* \"#utility.yul\":1422:1434   */\n      revert\n        /* \"#utility.yul\":1446:1563   */\n    tag_97:\n        /* \"#utility.yul\":1555:1556   */\n      0x00\n        /* \"#utility.yul\":1552:1553   */\n      dup1\n        /* \"#utility.yul\":1545:1557   */\n      revert\n        /* \"#utility.yul\":1569:1659   */\n    tag_98:\n        /* \"#utility.yul\":1603:1610   */\n      0x00\n        /* \"#utility.yul\":1646:1651   */\n      dup2\n        /* \"#utility.yul\":1639:1652   */\n      iszero\n        /* \"#utility.yul\":1632:1653   */\n      iszero\n        /* \"#utility.yul\":1621:1653   */\n      swap1\n      pop\n        /* \"#utility.yul\":1569:1659   */\n      swap2\n      swap1\n      pop\n      jump\t// out\n        /* \"#utility.yul\":1665:1781   */\n    tag_99:\n        /* \"#utility.yul\":1735:1756   */\n      tag_153\n        /* \"#utility.yul\":1750:1755   */\n      dup2\n        /* \"#utility.yul\":1735:1756   */\n      tag_98\n      jump\t// in\n    tag_153:\n        /* \"#utility.yul\":1728:1733   */\n      dup2\n        /* \"#utility.yul\":1725:1757   */\n      eq\n        /* \"#utility.yul\":1715:1775   */\n      tag_154\n      jumpi\n        /* \"#utility.yul\":1771:1772   */\n      0x00\n        /* \"#utility.yul\":1768:1769   */\n      dup1\n        /* \"#utility.yul\":1761:1773   */\n      revert\n        /* \"#utility.yul\":1715:1775   */\n    tag_154:\n        /* \"#utility.yul\":1665:1781   */\n      pop\n      jump\t// out\n        /* \"#utility.yul\":1787:1920   */\n    tag_100:\n        /* \"#utility.yul\":1830:1835   */\n      0x00\n        /* \"#utility.yul\":1868:1874   */\n      dup2\n        /* \"#utility.yul\":1855:1875   */\n      calldataload\n        /* \"#utility.yul\":1846:1875   */\n      swap1\n      pop\n        /* \"#utility.yul\":1884:1914   */\n      tag_156\n        /* \"#utility.yul\":1908:1913   */\n      dup2\n        /* \"#utility.yul\":1884:1914   */\n      tag_99\n      jump\t// in\n    tag_156:\n        /* \"#utility.yul\":1787:1920   */\n      swap3\n      swap2\n      pop\n      pop\n      jump\t// out\n        /* \"#utility.yul\":1926:2249   */\n    tag_22:\n        /* \"#utility.yul\":1982:1988   */\n      0x00\n        /* \"#utility.yul\":2031:2033   */\n      0x20\n        /* \"#utility.yul\":2019:2028   */\n      dup3\n        /* \"#utility.yul\":2010:2017   */\n      dup5\n        /* \"#utility.yul\":2006:2029   */\n      sub\n        /* \"#utility.yul\":2002:2034   */\n      slt\n        /* \"#utility.yul\":1999:2118   */\n      iszero\n      tag_158\n      jumpi\n        /* \"#utility.yul\":2037:2116   */\n      tag_159\n      tag_96\n      jump\t// in\n    tag_159:\n        /* \"#utility.yul\":1999:2118   */\n    tag_158:\n        /* \"#utility.yul\":2157:2158   */\n      0x00\n        /* \"#utility.yul\":2182:2232   */\n      tag_160\n        /* \"#utility.yul\":2224:2231   */\n      dup5\n        /* \"#utility.yul\":2215:2221   */\n      dup3\n        /* \"#utility.yul\":2204:2213   */\n      dup6\n        /* \"#utility.yul\":2200:2222   */\n      add\n        /* \"#utility.yul\":2182:2232   */\n      tag_100\n      jump\t// in\n    tag_160:\n        /* \"#utility.yul\":2172:2232   */\n      swap2\n      pop\n        /* \"#utility.yul\":2128:2242   */\n      pop\n        /* \"#utility.yul\":1926:2249   */\n      swap3\n      swap2\n      pop\n      pop\n      jump\t// out\n        /* \"#utility.yul\":2255:2364   */\n    tag_101:\n        /* \"#utility.yul\":2336:2357   */\n      tag_162\n        /* \"#utility.yul\":2351:2356   */\n      dup2\n        /* \"#utility.yul\":2336:2357   */\n      tag_98\n      jump\t// in\n    tag_162:\n        /* \"#utility.yul\":2331:2334   */\n      dup3\n        /* \"#utility.yul\":2324:2358   */\n      mstore\n        /* \"#utility.yul\":2255:2364   */\n      pop\n      pop\n      jump\t// out\n        /* \"#utility.yul\":2370:2580   */\n    tag_25:\n        /* \"#utility.yul\":2457:2461   */\n      0x00\n        /* \"#utility.yul\":2495:2497   */\n      0x20\n        /* \"#utility.yul\":2484:2493   */\n      dup3\n        /* \"#utility.yul\":2480:2498   */\n      add\n        /* \"#utility.yul\":2472:2498   */\n      swap1\n      pop\n        /* \"#utility.yul\":2508:2573   */\n      tag_164\n        /* \"#utility.yul\":2570:2571   */\n      0x00\n        /* \"#utility.yul\":2559:2568   */\n      dup4\n        /* \"#utility.yul\":2555:2572   */\n      add\n        /* \"#utility.yul\":2546:2552   */\n      dup5\n        /* \"#utility.yul\":2508:2573   */\n      tag_101\n      jump\t// in\n    tag_164:\n        /* \"#utility.yul\":2370:2580   */\n      swap3\n      swap2\n      pop\n      pop\n      jump\t// out\n        /* \"#utility.yul\":2586:2663   */\n    tag_102:\n        /* \"#utility.yul\":2623:2630   */\n      0x00\n        /* \"#utility.yul\":2652:2657   */\n      dup2\n        /* \"#utility.yul\":2641:2657   */\n      swap1\n      pop\n        /* \"#utility.yul\":2586:2663   */\n      swap2\n      swap1\n      pop\n      jump\t// out\n        /* \"#utility.yul\":2669:2791   */\n    tag_103:\n        /* \"#utility.yul\":2742:2766   */\n      tag_167\n        /* \"#utility.yul\":2760:2765   */\n      dup2\n        /* \"#utility.yul\":2742:2766   */\n      tag_102\n      jump\t// in\n    tag_167:\n        /* \"#utility.yul\":2735:2740   */\n      dup2\n        /* \"#utility.yul\":2732:2767   */\n      eq\n        /* \"#utility.yul\":2722:2785   */\n      tag_168\n      jumpi\n        /* \"#utility.yul\":2781:2782   */\n      0x00\n        /* \"#utility.yul\":2778:2779   */\n      dup1\n        /* \"#utility.yul\":2771:2783   */\n      revert\n        /* \"#utility.yul\":2722:2785   */\n    tag_168:\n        /* \"#utility.yul\":2669:2791   */\n      pop\n      jump\t// out\n        /* \"#utility.yul\":2797:2936   */\n    tag_104:\n        /* \"#utility.yul\":2843:2848   */\n      0x00\n        /* \"#utility.yul\":2881:2887   */\n      dup2\n        /* \"#utility.yul\":2868:2888   */\n      calldataload\n        /* \"#utility.yul\":2859:2888   */\n      swap1\n      pop\n        /* \"#utility.yul\":2897:2930   */\n      tag_170\n        /* \"#utility.yul\":2924:2929   */\n      dup2\n        /* \"#utility.yul\":2897:2930   */\n      tag_103\n      jump\t// in\n    tag_170:\n        /* \"#utility.yul\":2797:2936   */\n      swap3\n      swap2\n      pop\n      pop\n      jump\t// out\n        /* \"#utility.yul\":2942:3271   */\n    tag_28:\n        /* \"#utility.yul\":3001:3007   */\n      0x00\n        /* \"#utility.yul\":3050:3052   */\n      0x20\n        /* \"#utility.yul\":3038:3047   */\n      dup3\n        /* \"#utility.yul\":3029:3036   */\n      dup5\n        /* \"#utility.yul\":3025:3048   */\n      sub\n        /* \"#utility.yul\":3021:3053   */\n      slt\n        /* \"#utility.yul\":3018:3137   */\n      iszero\n      tag_172\n      jumpi\n        /* \"#utility.yul\":3056:3135   */\n      tag_173\n      tag_96\n      jump\t// in\n    tag_173:\n        /* \"#utility.yul\":3018:3137   */\n    tag_172:\n        /* \"#utility.yul\":3176:3177   */\n      0x00\n        /* \"#utility.yul\":3201:3254   */\n      tag_174\n        /* \"#utility.yul\":3246:3253   */\n      dup5\n        /* \"#utility.yul\":3237:3243   */\n      dup3\n        /* \"#utility.yul\":3226:3235   */\n      dup6\n        /* \"#utility.yul\":3222:3244   */\n      add\n        /* \"#utility.yul\":3201:3254   */\n      tag_104\n      jump\t// in\n    tag_174:\n        /* \"#utility.yul\":3191:3254   */\n      swap2\n      pop\n        /* \"#utility.yul\":3147:3264   */\n      pop\n        /* \"#utility.yul\":2942:3271   */\n      swap3\n      swap2\n      pop\n      pop\n      jump\t// out\n        /* \"#utility.yul\":3277:3395   */\n    tag_105:\n        /* \"#utility.yul\":3364:3388   */\n      tag_176\n        /* \"#utility.yul\":3382:3387   */\n      dup2\n        /* \"#utility.yul\":3364:3388   */\n      tag_102\n      jump\t// in\n    tag_176:\n        /* \"#utility.yul\":3359:3362   */\n      dup3\n        /* \"#utility.yul\":3352:3389   */\n      mstore\n        /* \"#utility.yul\":3277:3395   */\n      pop\n      pop\n      jump\t// out\n        /* \"#utility.yul\":3401:3623   */\n    tag_31:\n        /* \"#utility.yul\":3494:3498   */\n      0x00\n        /* \"#utility.yul\":3532:3534   */\n      0x20\n        /* \"#utility.yul\":3521:3530   */\n      dup3\n        /* \"#utility.yul\":3517:3535   */\n      add\n        /* \"#utility.yul\":3509:3535   */\n      swap1\n      pop\n        /* \"#utility.yul\":3545:3616   */\n      tag_178\n        /* \"#utility.yul\":3613:3614   */\n      0x00\n        /* \"#utility.yul\":3602:3611   */\n      dup4\n        /* \"#utility.yul\":3598:3615   */\n      add\n        /* \"#utility.yul\":3589:3595   */\n      dup5\n        /* \"#utility.yul\":3545:3616   */\n      tag_105\n      jump\t// in\n    tag_178:\n        /* \"#utility.yul\":3401:3623   */\n      swap3\n      swap2\n      pop\n      pop\n      jump\t// out\n        /* \"#utility.yul\":3629:3755   */\n    tag_106:\n        /* \"#utility.yul\":3666:3673   */\n      0x00\n        /* \"#utility.yul\":3706:3748   */\n      0xffffffffffffffffffffffffffffffffffffffff\n        /* \"#utility.yul\":3699:3704   */\n      dup3\n        /* \"#utility.yul\":3695:3749   */\n      and\n        /* \"#utility.yul\":3684:3749   */\n      swap1\n      pop\n        /* \"#utility.yul\":3629:3755   */\n      swap2\n      swap1\n      pop\n      jump\t// out\n        /* \"#utility.yul\":3761:3857   */\n    tag_107:\n        /* \"#utility.yul\":3798:3805   */\n      0x00\n        /* \"#utility.yul\":3827:3851   */\n      tag_181\n        /* \"#utility.yul\":3845:3850   */\n      dup3\n        /* \"#utility.yul\":3827:3851   */\n      tag_106\n      jump\t// in\n    tag_181:\n        /* \"#utility.yul\":3816:3851   */\n      swap1\n      pop\n        /* \"#utility.yul\":3761:3857   */\n      swap2\n      swap1\n      pop\n      jump\t// out\n        /* \"#utility.yul\":3863:3981   */\n    tag_108:\n        /* \"#utility.yul\":3950:3974   */\n      tag_183\n        /* \"#utility.yul\":3968:3973   */\n      dup2\n        /* \"#utility.yul\":3950:3974   */\n      tag_107\n      jump\t// in\n    tag_183:\n        /* \"#utility.yul\":3945:3948   */\n      dup3\n        /* \"#utility.yul\":3938:3975   */\n      mstore\n        /* \"#utility.yul\":3863:3981   */\n      pop\n      pop\n      jump\t// out\n        /* \"#utility.yul\":3987:4209   */\n    tag_35:\n        /* \"#utility.yul\":4080:4084   */\n      0x00\n        /* \"#utility.yul\":4118:4120   */\n      0x20\n        /* \"#utility.yul\":4107:4116   */\n      dup3\n        /* \"#utility.yul\":4103:4121   */\n      add\n        /* \"#utility.yul\":4095:4121   */\n      swap1\n      pop\n        /* \"#utility.yul\":4131:4202   */\n      tag_185\n        /* \"#utility.yul\":4199:4200   */\n      0x00\n        /* \"#utility.yul\":4188:4197   */\n      dup4\n        /* \"#utility.yul\":4184:4201   */\n      add\n        /* \"#utility.yul\":4175:4181   */\n      dup5\n        /* \"#utility.yul\":4131:4202   */\n      tag_108\n      jump\t// in\n    tag_185:\n        /* \"#utility.yul\":3987:4209   */\n      swap3\n      swap2\n      pop\n      pop\n      jump\t// out\n        /* \"#utility.yul\":4215:4332   */\n    tag_109:\n        /* \"#utility.yul\":4324:4325   */\n      0x00\n        /* \"#utility.yul\":4321:4322   */\n      dup1\n        /* \"#utility.yul\":4314:4326   */\n      revert\n        /* \"#utility.yul\":4338:4455   */\n    tag_110:\n        /* \"#utility.yul\":4447:4448   */\n      0x00\n        /* \"#utility.yul\":4444:4445   */\n      dup1\n        /* \"#utility.yul\":4437:4449   */\n      revert\n        /* \"#utility.yul\":4461:4641   */\n    tag_111:\n        /* \"#utility.yul\":4509:4586   */\n      0x4e487b7100000000000000000000000000000000000000000000000000000000\n        /* \"#utility.yul\":4506:4507   */\n      0x00\n        /* \"#utility.yul\":4499:4587   */\n      mstore\n        /* \"#utility.yul\":4606:4610   */\n      0x41\n        /* \"#utility.yul\":4603:4604   */\n      0x04\n        /* \"#utility.yul\":4596:4611   */\n      mstore\n        /* \"#utility.yul\":4630:4634   */\n      0x24\n        /* \"#utility.yul\":4627:4628   */\n      0x00\n        /* \"#utility.yul\":4620:4635   */\n      revert\n        /* \"#utility.yul\":4647:4928   */\n    tag_112:\n        /* \"#utility.yul\":4730:4757   */\n      tag_190\n        /* \"#utility.yul\":4752:4756   */\n      dup3\n        /* \"#utility.yul\":4730:4757   */\n      tag_93\n      jump\t// in\n    tag_190:\n        /* \"#utility.yul\":4722:4728   */\n      dup2\n        /* \"#utility.yul\":4718:4758   */\n      add\n        /* \"#utility.yul\":4860:4866   */\n      dup2\n        /* \"#utility.yul\":4848:4858   */\n      dup2\n        /* \"#utility.yul\":4845:4867   */\n      lt\n        /* \"#utility.yul\":4824:4842   */\n      0xffffffffffffffff\n        /* \"#utility.yul\":4812:4822   */\n      dup3\n        /* \"#utility.yul\":4809:4843   */\n      gt\n        /* \"#utility.yul\":4806:4868   */\n      or\n        /* \"#utility.yul\":4803:4891   */\n      iszero\n      tag_191\n      jumpi\n        /* \"#utility.yul\":4871:4889   */\n      tag_192\n      tag_111\n      jump\t// in\n    tag_192:\n        /* \"#utility.yul\":4803:4891   */\n    tag_191:\n        /* \"#utility.yul\":4911:4921   */\n      dup1\n        /* \"#utility.yul\":4907:4909   */\n      0x40\n        /* \"#utility.yul\":4900:4922   */\n      mstore\n        /* \"#utility.yul\":4690:4928   */\n      pop\n        /* \"#utility.yul\":4647:4928   */\n      pop\n      pop\n      jump\t// out\n        /* \"#utility.yul\":4934:5063   */\n    tag_113:\n        /* \"#utility.yul\":4968:4974   */\n      0x00\n        /* \"#utility.yul\":4995:5015   */\n      tag_194\n      tag_95\n      jump\t// in\n    tag_194:\n        /* \"#utility.yul\":4985:5015   */\n      swap1\n      pop\n        /* \"#utility.yul\":5024:5057   */\n      tag_195\n        /* \"#utility.yul\":5052:5056   */\n      dup3\n        /* \"#utility.yul\":5044:5050   */\n      dup3\n        /* \"#utility.yul\":5024:5057   */\n      tag_112\n      jump\t// in\n    tag_195:\n        /* \"#utility.yul\":4934:5063   */\n      swap2\n      swap1\n      pop\n      jump\t// out\n        /* \"#utility.yul\":5069:5377   */\n    tag_114:\n        /* \"#utility.yul\":5131:5135   */\n      0x00\n        /* \"#utility.yul\":5221:5239   */\n      0xffffffffffffffff\n        /* \"#utility.yul\":5213:5219   */\n      dup3\n        /* \"#utility.yul\":5210:5240   */\n      gt\n        /* \"#utility.yul\":5207:5263   */\n      iszero\n      tag_197\n      jumpi\n        /* \"#utility.yul\":5243:5261   */\n      tag_198\n      tag_111\n      jump\t// in\n    tag_198:\n        /* \"#utility.yul\":5207:5263   */\n    tag_197:\n        /* \"#utility.yul\":5281:5310   */\n      tag_199\n        /* \"#utility.yul\":5303:5309   */\n      dup3\n        /* \"#utility.yul\":5281:5310   */\n      tag_93\n      jump\t// in\n    tag_199:\n        /* \"#utility.yul\":5273:5310   */\n      swap1\n      pop\n        /* \"#utility.yul\":5365:5369   */\n      0x20\n        /* \"#utility.yul\":5359:5363   */\n      dup2\n        /* \"#utility.yul\":5355:5370   */\n      add\n        /* \"#utility.yul\":5347:5370   */\n      swap1\n      pop\n        /* \"#utility.yul\":5069:5377   */\n      swap2\n      swap1\n      pop\n      jump\t// out\n        /* \"#utility.yul\":5383:5531   */\n    tag_115:\n        /* \"#utility.yul\":5481:5487   */\n      dup3\n        /* \"#utility.yul\":5476:5479   */\n      dup2\n        /* \"#utility.yul\":5471:5474   */\n      dup4\n        /* \"#utility.yul\":5458:5488   */\n      calldatacopy\n        /* \"#utility.yul\":5522:5523   */\n      0x00\n        /* \"#utility.yul\":5513:5519   */\n      dup4\n        /* \"#utility.yul\":5508:5511   */\n      dup4\n        /* \"#utility.yul\":5504:5520   */\n      add\n        /* \"#utility.yul\":5497:5524   */\n      mstore\n        /* \"#utility.yul\":5383:5531   */\n      pop\n      pop\n      pop\n      jump\t// out\n        /* \"#utility.yul\":5537:5962   */\n    tag_116:\n        /* \"#utility.yul\":5615:5620   */\n      0x00\n        /* \"#utility.yul\":5640:5706   */\n      tag_202\n        /* \"#utility.yul\":5656:5705   */\n      tag_203\n        /* \"#utility.yul\":5698:5704   */\n      dup5\n        /* \"#utility.yul\":5656:5705   */\n      tag_114\n      jump\t// in\n    tag_203:\n        /* \"#utility.yul\":5640:5706   */\n      tag_113\n      jump\t// in\n    tag_202:\n        /* \"#utility.yul\":5631:5706   */\n      swap1\n      pop\n        /* \"#utility.yul\":5729:5735   */\n      dup3\n        /* \"#utility.yul\":5722:5727   */\n      dup2\n        /* \"#utility.yul\":5715:5736   */\n      mstore\n        /* \"#utility.yul\":5767:5771   */\n      0x20\n        /* \"#utility.yul\":5760:5765   */\n      dup2\n        /* \"#utility.yul\":5756:5772   */\n      add\n        /* \"#utility.yul\":5805:5808   */\n      dup5\n        /* \"#utility.yul\":5796:5802   */\n      dup5\n        /* \"#utility.yul\":5791:5794   */\n      dup5\n        /* \"#utility.yul\":5787:5803   */\n      add\n        /* \"#utility.yul\":5784:5809   */\n      gt\n        /* \"#utility.yul\":5781:5893   */\n      iszero\n      tag_204\n      jumpi\n        /* \"#utility.yul\":5812:5891   */\n      tag_205\n      tag_110\n      jump\t// in\n    tag_205:\n        /* \"#utility.yul\":5781:5893   */\n    tag_204:\n        /* \"#utility.yul\":5902:5956   */\n      tag_206\n        /* \"#utility.yul\":5949:5955   */\n      dup5\n        /* \"#utility.yul\":5944:5947   */\n      dup3\n        /* \"#utility.yul\":5939:5942   */\n      dup6\n        /* \"#utility.yul\":5902:5956   */\n      tag_115\n      jump\t// in\n    tag_206:\n        /* \"#utility.yul\":5621:5962   */\n      pop\n        /* \"#utility.yul\":5537:5962   */\n      swap4\n      swap3\n      pop\n      pop\n      pop\n      jump\t// out\n        /* \"#utility.yul\":5982:6322   */\n    tag_117:\n        /* \"#utility.yul\":6038:6043   */\n      0x00\n        /* \"#utility.yul\":6087:6090   */\n      dup3\n        /* \"#utility.yul\":6080:6084   */\n      0x1f\n        /* \"#utility.yul\":6072:6078   */\n      dup4\n        /* \"#utility.yul\":6068:6085   */\n      add\n        /* \"#utility.yul\":6064:6091   */\n      slt\n        /* \"#utility.yul\":6054:6176   */\n      tag_208\n      jumpi\n        /* \"#utility.yul\":6095:6174   */\n      tag_209\n      tag_109\n      jump\t// in\n    tag_209:\n        /* \"#utility.yul\":6054:6176   */\n    tag_208:\n        /* \"#utility.yul\":6212:6218   */\n      dup2\n        /* \"#utility.yul\":6199:6219   */\n      calldataload\n        /* \"#utility.yul\":6237:6316   */\n      tag_210\n        /* \"#utility.yul\":6312:6315   */\n      dup5\n        /* \"#utility.yul\":6304:6310   */\n      dup3\n        /* \"#utility.yul\":6297:6301   */\n      0x20\n        /* \"#utility.yul\":6289:6295   */\n      dup7\n        /* \"#utility.yul\":6285:6302   */\n      add\n        /* \"#utility.yul\":6237:6316   */\n      tag_116\n      jump\t// in\n    tag_210:\n        /* \"#utility.yul\":6228:6316   */\n      swap2\n      pop\n        /* \"#utility.yul\":6044:6322   */\n      pop\n        /* \"#utility.yul\":5982:6322   */\n      swap3\n      swap2\n      pop\n      pop\n      jump\t// out\n        /* \"#utility.yul\":6328:6837   */\n    tag_38:\n        /* \"#utility.yul\":6397:6403   */\n      0x00\n        /* \"#utility.yul\":6446:6448   */\n      0x20\n        /* \"#utility.yul\":6434:6443   */\n      dup3\n        /* \"#utility.yul\":6425:6432   */\n      dup5\n        /* \"#utility.yul\":6421:6444   */\n      sub\n        /* \"#utility.yul\":6417:6449   */\n      slt\n        /* \"#utility.yul\":6414:6533   */\n      iszero\n      tag_212\n      jumpi\n        /* \"#utility.yul\":6452:6531   */\n      tag_213\n      tag_96\n      jump\t// in\n    tag_213:\n        /* \"#utility.yul\":6414:6533   */\n    tag_212:\n        /* \"#utility.yul\":6600:6601   */\n      0x00\n        /* \"#utility.yul\":6589:6598   */\n      dup3\n        /* \"#utility.yul\":6585:6602   */\n      add\n        /* \"#utility.yul\":6572:6603   */\n      calldataload\n        /* \"#utility.yul\":6630:6648   */\n      0xffffffffffffffff\n        /* \"#utility.yul\":6622:6628   */\n      dup2\n        /* \"#utility.yul\":6619:6649   */\n      gt\n        /* \"#utility.yul\":6616:6733   */\n      iszero\n      tag_214\n      jumpi\n        /* \"#utility.yul\":6652:6731   */\n      tag_215\n      tag_97\n      jump\t// in\n    tag_215:\n        /* \"#utility.yul\":6616:6733   */\n    tag_214:\n        /* \"#utility.yul\":6757:6820   */\n      tag_216\n        /* \"#utility.yul\":6812:6819   */\n      dup5\n        /* \"#utility.yul\":6803:6809   */\n      dup3\n        /* \"#utility.yul\":6792:6801   */\n      dup6\n        /* \"#utility.yul\":6788:6810   */\n      add\n        /* \"#utility.yul\":6757:6820   */\n      tag_117\n      jump\t// in\n    tag_216:\n        /* \"#utility.yul\":6747:6820   */\n      swap2\n      pop\n        /* \"#utility.yul\":6543:6830   */\n      pop\n        /* \"#utility.yul\":6328:6837   */\n      swap3\n      swap2\n      pop\n      pop\n      jump\t// out\n        /* \"#utility.yul\":6843:6965   */\n    tag_118:\n        /* \"#utility.yul\":6916:6940   */\n      tag_218\n        /* \"#utility.yul\":6934:6939   */\n      dup2\n        /* \"#utility.yul\":6916:6940   */\n      tag_107\n      jump\t// in\n    tag_218:\n        /* \"#utility.yul\":6909:6914   */\n      dup2\n        /* \"#utility.yul\":6906:6941   */\n      eq\n        /* \"#utility.yul\":6896:6959   */\n      tag_219\n      jumpi\n        /* \"#utility.yul\":6955:6956   */\n      0x00\n        /* \"#utility.yul\":6952:6953   */\n      dup1\n        /* \"#utility.yul\":6945:6957   */\n      revert\n        /* \"#utility.yul\":6896:6959   */\n    tag_219:\n        /* \"#utility.yul\":6843:6965   */\n      pop\n      jump\t// out\n        /* \"#utility.yul\":6971:7110   */\n    tag_119:\n        /* \"#utility.yul\":7017:7022   */\n      0x00\n        /* \"#utility.yul\":7055:7061   */\n      dup2\n        /* \"#utility.yul\":7042:7062   */\n      calldataload\n        /* \"#utility.yul\":7033:7062   */\n      swap1\n      pop\n        /* \"#utility.yul\":7071:7104   */\n      tag_221\n        /* \"#utility.yul\":7098:7103   */\n      dup2\n        /* \"#utility.yul\":7071:7104   */\n      tag_118\n      jump\t// in\n    tag_221:\n        /* \"#utility.yul\":6971:7110   */\n      swap3\n      swap2\n      pop\n      pop\n      jump\t// out\n        /* \"#utility.yul\":7116:7445   */\n    tag_49:\n        /* \"#utility.yul\":7175:7181   */\n      0x00\n        /* \"#utility.yul\":7224:7226   */\n      0x20\n        /* \"#utility.yul\":7212:7221   */\n      dup3\n        /* \"#utility.yul\":7203:7210   */\n      dup5\n        /* \"#utility.yul\":7199:7222   */\n      sub\n        /* \"#utility.yul\":7195:7227   */\n      slt\n        /* \"#utility.yul\":7192:7311   */\n      iszero\n      tag_223\n      jumpi\n        /* \"#utility.yul\":7230:7309   */\n      tag_224\n      tag_96\n      jump\t// in\n    tag_224:\n        /* \"#utility.yul\":7192:7311   */\n    tag_223:\n        /* \"#utility.yul\":7350:7351   */\n      0x00\n        /* \"#utility.yul\":7375:7428   */\n      tag_225\n        /* \"#utility.yul\":7420:7427   */\n      dup5\n        /* \"#utility.yul\":7411:7417   */\n      dup3\n        /* \"#utility.yul\":7400:7409   */\n      dup6\n        /* \"#utility.yul\":7396:7418   */\n      add\n        /* \"#utility.yul\":7375:7428   */\n      tag_119\n      jump\t// in\n    tag_225:\n        /* \"#utility.yul\":7365:7428   */\n      swap2\n      pop\n        /* \"#utility.yul\":7321:7438   */\n      pop\n        /* \"#utility.yul\":7116:7445   */\n      swap3\n      swap2\n      pop\n      pop\n      jump\t// out\n        /* \"#utility.yul\":7451:7631   */\n    tag_120:\n        /* \"#utility.yul\":7499:7576   */\n      0x4e487b7100000000000000000000000000000000000000000000000000000000\n        /* \"#utility.yul\":7496:7497   */\n      0x00\n        /* \"#utility.yul\":7489:7577   */\n      mstore\n        /* \"#utility.yul\":7596:7600   */\n      0x22\n        /* \"#utility.yul\":7593:7594   */\n      0x04\n        /* \"#utility.yul\":7586:7601   */\n      mstore\n        /* \"#utility.yul\":7620:7624   */\n      0x24\n        /* \"#utility.yul\":7617:7618   */\n      0x00\n        /* \"#utility.yul\":7610:7625   */\n      revert\n        /* \"#utility.yul\":7637:7957   */\n    tag_65:\n        /* \"#utility.yul\":7681:7687   */\n      0x00\n        /* \"#utility.yul\":7718:7719   */\n      0x02\n        /* \"#utility.yul\":7712:7716   */\n      dup3\n        /* \"#utility.yul\":7708:7720   */\n      div\n        /* \"#utility.yul\":7698:7720   */\n      swap1\n      pop\n        /* \"#utility.yul\":7765:7766   */\n      0x01\n        /* \"#utility.yul\":7759:7763   */\n      dup3\n        /* \"#utility.yul\":7755:7767   */\n      and\n        /* \"#utility.yul\":7786:7804   */\n      dup1\n        /* \"#utility.yul\":7776:7857   */\n      tag_228\n      jumpi\n        /* \"#utility.yul\":7842:7846   */\n      0x7f\n        /* \"#utility.yul\":7834:7840   */\n      dup3\n        /* \"#utility.yul\":7830:7847   */\n      and\n        /* \"#utility.yul\":7820:7847   */\n      swap2\n      pop\n        /* \"#utility.yul\":7776:7857   */\n    tag_228:\n        /* \"#utility.yul\":7904:7906   */\n      0x20\n        /* \"#utility.yul\":7896:7902   */\n      dup3\n        /* \"#utility.yul\":7893:7907   */\n      lt\n        /* \"#utility.yul\":7873:7891   */\n      dup2\n        /* \"#utility.yul\":7870:7908   */\n      sub\n        /* \"#utility.yul\":7867:7951   */\n      tag_229\n      jumpi\n        /* \"#utility.yul\":7923:7941   */\n      tag_230\n      tag_120\n      jump\t// in\n    tag_230:\n        /* \"#utility.yul\":7867:7951   */\n    tag_229:\n        /* \"#utility.yul\":7688:7957   */\n      pop\n        /* \"#utility.yul\":7637:7957   */\n      swap2\n      swap1\n      pop\n      jump\t// out\n        /* \"#utility.yul\":7963:8104   */\n    tag_121:\n        /* \"#utility.yul\":8012:8016   */\n      0x00\n        /* \"#utility.yul\":8035:8038   */\n      dup2\n        /* \"#utility.yul\":8027:8038   */\n      swap1\n      pop\n        /* \"#utility.yul\":8058:8061   */\n      dup2\n        /* \"#utility.yul\":8055:8056   */\n      0x00\n        /* \"#utility.yul\":8048:8062   */\n      mstore\n        /* \"#utility.yul\":8092:8096   */\n      0x20\n        /* \"#utility.yul\":8089:8090   */\n      0x00\n        /* \"#utility.yul\":8079:8097   */\n      keccak256\n        /* \"#utility.yul\":8071:8097   */\n      swap1\n      pop\n        /* \"#utility.yul\":7963:8104   */\n      swap2\n      swap1\n      pop\n      jump\t// out\n        /* \"#utility.yul\":8110:8203   */\n    tag_122:\n        /* \"#utility.yul\":8147:8153   */\n      0x00\n        /* \"#utility.yul\":8194:8196   */\n      0x20\n        /* \"#utility.yul\":8189:8191   */\n      0x1f\n        /* \"#utility.yul\":8182:8187   */\n      dup4\n        /* \"#utility.yul\":8178:8192   */\n      add\n        /* \"#utility.yul\":8174:8197   */\n      div\n        /* \"#utility.yul\":8164:8197   */\n      swap1\n      pop\n        /* \"#utility.yul\":8110:8203   */\n      swap2\n      swap1\n      pop\n      jump\t// out\n        /* \"#utility.yul\":8209:8316   */\n    tag_123:\n        /* \"#utility.yul\":8253:8261   */\n      0x00\n        /* \"#utility.yul\":8303:8308   */\n      dup3\n        /* \"#utility.yul\":8297:8301   */\n      dup3\n        /* \"#utility.yul\":8293:8309   */\n      shl\n        /* \"#utility.yul\":8272:8309   */\n      swap1\n      pop\n        /* \"#utility.yul\":8209:8316   */\n      swap3\n      swap2\n      pop\n      pop\n      jump\t// out\n        /* \"#utility.yul\":8322:8715   */\n    tag_124:\n        /* \"#utility.yul\":8391:8397   */\n      0x00\n        /* \"#utility.yul\":8441:8442   */\n      0x08\n        /* \"#utility.yul\":8429:8439   */\n      dup4\n        /* \"#utility.yul\":8425:8443   */\n      mul\n        /* \"#utility.yul\":8464:8561   */\n      tag_235\n        /* \"#utility.yul\":8494:8560   */\n      0xffffffffffffffffffffffffffffffffffffffffffffffffffffffffffffffff\n        /* \"#utility.yul\":8483:8492   */\n      dup3\n        /* \"#utility.yul\":8464:8561   */\n      tag_123\n      jump\t// in\n    tag_235:\n        /* \"#utility.yul\":8582:8621   */\n      tag_236\n        /* \"#utility.yul\":8612:8620   */\n      dup7\n        /* \"#utility.yul\":8601:8610   */\n      dup4\n        /* \"#utility.yul\":8582:8621   */\n      tag_123\n      jump\t// in\n    tag_236:\n        /* \"#utility.yul\":8570:8621   */\n      swap6\n      pop\n        /* \"#utility.yul\":8654:8658   */\n      dup1\n        /* \"#utility.yul\":8650:8659   */\n      not\n        /* \"#utility.yul\":8643:8648   */\n      dup5\n        /* \"#utility.yul\":8639:8660   */\n      and\n        /* \"#utility.yul\":8630:8660   */\n      swap4\n      pop\n        /* \"#utility.yul\":8703:8707   */\n      dup1\n        /* \"#utility.yul\":8693:8701   */\n      dup7\n        /* \"#utility.yul\":8689:8708   */\n      and\n        /* \"#utility.yul\":8682:8687   */\n      dup5\n        /* \"#utility.yul\":8679:8709   */\n      or\n        /* \"#utility.yul\":8669:8709   */\n      swap3\n      pop\n        /* \"#utility.yul\":8398:8715   */\n      pop\n      pop\n        /* \"#utility.yul\":8322:8715   */\n      swap4\n      swap3\n      pop\n      pop\n      pop\n      jump\t// out\n        /* \"#utility.yul\":8721:8781   */\n    tag_125:\n        /* \"#utility.yul\":8749:8752   */\n      0x00\n        /* \"#utility.yul\":8770:8775   */\n      dup2\n        /* \"#utility.yul\":8763:8775   */\n      swap1\n      pop\n        /* \"#utility.yul\":8721:8781   */\n      swap2\n      swap1\n      pop\n      jump\t// out\n        /* \"#utility.yul\":8787:8929   */\n    tag_126:\n        /* \"#utility.yul\":8837:8846   */\n      0x00\n        /* \"#utility.yul\":8870:8923   */\n      tag_239\n        /* \"#utility.yul\":8888:8922   */\n      tag_240\n        /* \"#utility.yul\":8897:8921   */\n      tag_241\n        /* \"#utility.yul\":8915:8920   */\n      dup5\n        /* \"#utility.yul\":8897:8921   */\n      tag_102\n      jump\t// in\n    tag_241:\n        /* \"#utility.yul\":8888:8922   */\n      tag_125\n      jump\t// in\n    tag_240:\n        /* \"#utility.yul\":8870:8923   */\n      tag_102\n      jump\t// in\n    tag_239:\n        /* \"#utility.yul\":8857:8923   */\n      swap1\n      pop\n        /* \"#utility.yul\":8787:8929   */\n      swap2\n      swap1\n      pop\n      jump\t// out\n        /* \"#utility.yul\":8935:9010   */\n    tag_127:\n        /* \"#utility.yul\":8978:8981   */\n      0x00\n        /* \"#utility.yul\":8999:9004   */\n      dup2\n        /* \"#utility.yul\":8992:9004   */\n      swap1\n      pop\n        /* \"#utility.yul\":8935:9010   */\n      swap2\n      swap1\n      pop\n      jump\t// out\n        /* \"#utility.yul\":9016:9285   */\n    tag_128:\n        /* \"#utility.yul\":9126:9165   */\n      tag_244\n        /* \"#utility.yul\":9157:9164   */\n      dup4\n        /* \"#utility.yul\":9126:9165   */\n      tag_126\n      jump\t// in\n    tag_244:\n        /* \"#utility.yul\":9187:9278   */\n      tag_245\n        /* \"#utility.yul\":9236:9277   */\n      tag_246\n        /* \"#utility.yul\":9260:9276   */\n      dup3\n        /* \"#utility.yul\":9236:9277   */\n      tag_127\n      jump\t// in\n    tag_246:\n        /* \"#utility.yul\":9228:9234   */\n      dup5\n        /* \"#utility.yul\":9221:9225   */\n      dup5\n        /* \"#utility.yul\":9215:9226   */\n      sload\n        /* \"#utility.yul\":9187:9278   */\n      tag_124\n      jump\t// in\n    tag_245:\n        /* \"#utility.yul\":9181:9185   */\n      dup3\n        /* \"#utility.yul\":9174:9279   */\n      sstore\n        /* \"#utility.yul\":9092:9285   */\n      pop\n        /* \"#utility.yul\":9016:9285   */\n      pop\n      pop\n      pop\n      jump\t// out\n        /* \"#utility.yul\":9291:9364   */\n    tag_129:\n        /* \"#utility.yul\":9336:9339   */\n      0x00\n        /* \"#utility.yul\":9291:9364   */\n      swap1\n      jump\t// out\n        /* \"#utility.yul\":9370:9559   */\n    tag_130:\n        /* \"#utility.yul\":9447:9479   */\n      tag_249\n      tag_129\n      jump\t// in\n    tag_249:\n        /* \"#utility.yul\":9488:9553   */\n      tag_250\n        /* \"#utility.yul\":9546:9552   */\n      dup2\n        /* \"#utility.yul\":9538:9544   */\n      dup5\n        /* \"#utility.yul\":9532:9536   */\n      dup5\n        /* \"#utility.yul\":9488:9553   */\n      tag_128\n      jump\t// in\n    tag_250:\n        /* \"#utility.yul\":9423:9559   */\n      pop\n        /* \"#utility.yul\":9370:9559   */\n      pop\n      pop\n      jump\t// out\n        /* \"#utility.yul\":9565:9751   */\n    tag_131:\n        /* \"#utility.yul\":9625:9745   */\n    tag_252:\n        /* \"#utility.yul\":9642:9645   */\n      dup2\n        /* \"#utility.yul\":9635:9640   */\n      dup2\n        /* \"#utility.yul\":9632:9646   */\n      lt\n        /* \"#utility.yul\":9625:9745   */\n      iszero\n      tag_254\n      jumpi\n        /* \"#utility.yul\":9696:9735   */\n      tag_255\n        /* \"#utility.yul\":9733:9734   */\n      0x00\n        /* \"#utility.yul\":9726:9731   */\n      dup3\n        /* \"#utility.yul\":9696:9735   */\n      tag_130\n      jump\t// in\n    tag_255:\n        /* \"#utility.yul\":9669:9670   */\n      0x01\n        /* \"#utility.yul\":9662:9667   */\n      dup2\n        /* \"#utility.yul\":9658:9671   */\n      add\n        /* \"#utility.yul\":9649:9671   */\n      swap1\n      pop\n        /* \"#utility.yul\":9625:9745   */\n      jump(tag_252)\n    tag_254:\n        /* \"#utility.yul\":9565:9751   */\n      pop\n      pop\n      jump\t// out\n        /* \"#utility.yul\":9757:10300   */\n    tag_132:\n        /* \"#utility.yul\":9858:9860   */\n      0x1f\n        /* \"#utility.yul\":9853:9856   */\n      dup3\n        /* \"#utility.yul\":9850:9861   */\n      gt\n        /* \"#utility.yul\":9847:10293   */\n      iszero\n      tag_257\n      jumpi\n        /* \"#utility.yul\":9892:9930   */\n      tag_258\n        /* \"#utility.yul\":9924:9929   */\n      dup2\n        /* \"#utility.yul\":9892:9930   */\n      tag_121\n      jump\t// in\n    tag_258:\n        /* \"#utility.yul\":9976:10005   */\n      tag_259\n        /* \"#utility.yul\":9994:10004   */\n      dup5\n        /* \"#utility.yul\":9976:10005   */\n      tag_122\n      jump\t// in\n    tag_259:\n        /* \"#utility.yul\":9966:9974   */\n      dup2\n        /* \"#utility.yul\":9962:10006   */\n      add\n        /* \"#utility.yul\":10159:10161   */\n      0x20\n        /* \"#utility.yul\":10147:10157   */\n      dup6\n        /* \"#utility.yul\":10144:10162   */\n      lt\n        /* \"#utility.yul\":10141:10190   */\n      iszero\n      tag_260\n      jumpi\n        /* \"#utility.yul\":10180:10188   */\n      dup2\n        /* \"#utility.yul\":10165:10188   */\n      swap1\n      pop\n        /* \"#utility.yul\":10141:10190   */\n    tag_260:\n        /* \"#utility.yul\":10203:10283   */\n      tag_261\n        /* \"#utility.yul\":10259:10281   */\n      tag_262\n        /* \"#utility.yul\":10277:10280   */\n      dup6\n        /* \"#utility.yul\":10259:10281   */\n      tag_122\n      jump\t// in\n    tag_262:\n        /* \"#utility.yul\":10249:10257   */\n      dup4\n        /* \"#utility.yul\":10245:10282   */\n      add\n        /* \"#utility.yul\":10232:10243   */\n      dup3\n        /* \"#utility.yul\":10203:10283   */\n      tag_131\n      jump\t// in\n    tag_261:\n        /* \"#utility.yul\":9862:10293   */\n      pop\n      pop\n        /* \"#utility.yul\":9847:10293   */\n    tag_257:\n        /* \"#utility.yul\":9757:10300   */\n      pop\n      pop\n      pop\n      jump\t// out\n        /* \"#utility.yul\":10306:10423   */\n    tag_133:\n        /* \"#utility.yul\":10360:10368   */\n      0x00\n        /* \"#utility.yul\":10410:10415   */\n      dup3\n        /* \"#utility.yul\":10404:10408   */\n      dup3\n        /* \"#utility.yul\":10400:10416   */\n      shr\n        /* \"#utility.yul\":10379:10416   */\n      swap1\n      pop\n        /* \"#utility.yul\":10306:10423   */\n      swap3\n      swap2\n      pop\n      pop\n      jump\t// out\n        /* \"#utility.yul\":10429:10598   */\n    tag_134:\n        /* \"#utility.yul\":10473:10479   */\n      0x00\n        /* \"#utility.yul\":10506:10557   */\n      tag_265\n        /* \"#utility.yul\":10554:10555   */\n      0x00\n        /* \"#utility.yul\":10550:10556   */\n      not\n        /* \"#utility.yul\":10542:10547   */\n      dup5\n        /* \"#utility.yul\":10539:10540   */\n      0x08\n        /* \"#utility.yul\":10535:10548   */\n      mul\n        /* \"#utility.yul\":10506:10557   */\n      tag_133\n      jump\t// in\n    tag_265:\n        /* \"#utility.yul\":10502:10558   */\n      not\n        /* \"#utility.yul\":10587:10591   */\n      dup1\n        /* \"#utility.yul\":10581:10585   */\n      dup4\n        /* \"#utility.yul\":10577:10592   */\n      and\n        /* \"#utility.yul\":10567:10592   */\n      swap2\n      pop\n        /* \"#utility.yul\":10480:10598   */\n      pop\n        /* \"#utility.yul\":10429:10598   */\n      swap3\n      swap2\n      pop\n      pop\n      jump\t// out\n        /* \"#utility.yul\":10603:10898   */\n    tag_135:\n        /* \"#utility.yul\":10679:10683   */\n      0x00\n        /* \"#utility.yul\":10825:10854   */\n      tag_267\n        /* \"#utility.yul\":10850:10853   */\n      dup4\n        /* \"#utility.yul\":10844:10848   */\n      dup4\n        /* \"#utility.yul\":10825:10854   */\n      tag_134\n      jump\t// in\n    tag_267:\n        /* \"#utility.yul\":10817:10854   */\n      swap2\n      pop\n        /* \"#utility.yul\":10887:10890   */\n      dup3\n        /* \"#utility.yul\":10884:10885   */\n      0x02\n        /* \"#utility.yul\":10880:10891   */\n      mul\n        /* \"#utility.yul\":10874:10878   */\n      dup3\n        /* \"#utility.yul\":10871:10892   */\n      or\n        /* \"#utility.yul\":10863:10892   */\n      swap1\n      pop\n        /* \"#utility.yul\":10603:10898   */\n      swap3\n      swap2\n      pop\n      pop\n      jump\t// out\n        /* \"#utility.yul\":10903:12298   */\n    tag_74:\n        /* \"#utility.yul\":11020:11057   */\n      tag_269\n        /* \"#utility.yul\":11053:11056   */\n      dup3\n        /* \"#utility.yul\":11020:11057   */\n      tag_90\n      jump\t// in\n    tag_269:\n        /* \"#utility.yul\":11122:11140   */\n      0xffffffffffffffff\n        /* \"#utility.yul\":11114:11120   */\n      dup2\n        /* \"#utility.yul\":11111:11141   */\n      gt\n        /* \"#utility.yul\":11108:11164   */\n      iszero\n      tag_270\n      jumpi\n        /* \"#utility.yul\":11144:11162   */\n      tag_271\n      tag_111\n      jump\t// in\n    tag_271:\n        /* \"#utility.yul\":11108:11164   */\n    tag_270:\n        /* \"#utility.yul\":11188:11226   */\n      tag_272\n        /* \"#utility.yul\":11220:11224   */\n      dup3\n        /* \"#utility.yul\":11214:11225   */\n      sload\n        /* \"#utility.yul\":11188:11226   */\n      tag_65\n      jump\t// in\n    tag_272:\n        /* \"#utility.yul\":11273:11340   */\n      tag_273\n        /* \"#utility.yul\":11333:11339   */\n      dup3\n        /* \"#utility.yul\":11325:11331   */\n      dup3\n        /* \"#utility.yul\":11319:11323   */\n      dup6\n        /* \"#utility.yul\":11273:11340   */\n      tag_132\n      jump\t// in\n    tag_273:\n        /* \"#utility.yul\":11367:11368   */\n      0x00\n        /* \"#utility.yul\":11391:11395   */\n      0x20\n        /* \"#utility.yul\":11378:11395   */\n      swap1\n      pop\n        /* \"#utility.yul\":11423:11425   */\n      0x1f\n        /* \"#utility.yul\":11415:11421   */\n      dup4\n        /* \"#utility.yul\":11412:11426   */\n      gt\n        /* \"#utility.yul\":11440:11441   */\n      0x01\n        /* \"#utility.yul\":11435:12053   */\n      dup2\n      eq\n      tag_275\n      jumpi\n        /* \"#utility.yul\":12097:12098   */\n      0x00\n        /* \"#utility.yul\":12114:12120   */\n      dup5\n        /* \"#utility.yul\":12111:12188   */\n      iszero\n      tag_276\n      jumpi\n        /* \"#utility.yul\":12163:12172   */\n      dup3\n        /* \"#utility.yul\":12158:12161   */\n      dup8\n        /* \"#utility.yul\":12154:12173   */\n      add\n        /* \"#utility.yul\":12148:12174   */\n      mload\n        /* \"#utility.yul\":12139:12174   */\n      swap1\n      pop\n        /* \"#utility.yul\":12111:12188   */\n    tag_276:\n        /* \"#utility.yul\":12214:12281   */\n      tag_277\n        /* \"#utility.yul\":12274:12280   */\n      dup6\n        /* \"#utility.yul\":12267:12272   */\n      dup3\n        /* \"#utility.yul\":12214:12281   */\n      tag_135\n      jump\t// in\n    tag_277:\n        /* \"#utility.yul\":12208:12212   */\n      dup7\n        /* \"#utility.yul\":12201:12282   */\n      sstore\n        /* \"#utility.yul\":12070:12292   */\n      pop\n        /* \"#utility.yul\":11405:12292   */\n      jump(tag_274)\n        /* \"#utility.yul\":11435:12053   */\n    tag_275:\n        /* \"#utility.yul\":11487:11491   */\n      0x1f\n        /* \"#utility.yul\":11483:11492   */\n      not\n        /* \"#utility.yul\":11475:11481   */\n      dup5\n        /* \"#utility.yul\":11471:11493   */\n      and\n        /* \"#utility.yul\":11521:11558   */\n      tag_278\n        /* \"#utility.yul\":11553:11557   */\n      dup7\n        /* \"#utility.yul\":11521:11558   */\n      tag_121\n      jump\t// in\n    tag_278:\n        /* \"#utility.yul\":11580:11581   */\n      0x00\n        /* \"#utility.yul\":11594:11802   */\n    tag_279:\n        /* \"#utility.yul\":11608:11615   */\n      dup3\n        /* \"#utility.yul\":11605:11606   */\n      dup2\n        /* \"#utility.yul\":11602:11616   */\n      lt\n        /* \"#utility.yul\":11594:11802   */\n      iszero\n      tag_281\n      jumpi\n        /* \"#utility.yul\":11687:11696   */\n      dup5\n        /* \"#utility.yul\":11682:11685   */\n      dup10\n        /* \"#utility.yul\":11678:11697   */\n      add\n        /* \"#utility.yul\":11672:11698   */\n      mload\n        /* \"#utility.yul\":11664:11670   */\n      dup3\n        /* \"#utility.yul\":11657:11699   */\n      sstore\n        /* \"#utility.yul\":11738:11739   */\n      0x01\n        /* \"#utility.yul\":11730:11736   */\n      dup3\n        /* \"#utility.yul\":11726:11740   */\n      add\n        /* \"#utility.yul\":11716:11740   */\n      swap2\n      pop\n        /* \"#utility.yul\":11785:11787   */\n      0x20\n        /* \"#utility.yul\":11774:11783   */\n      dup6\n        /* \"#utility.yul\":11770:11788   */\n      add\n        /* \"#utility.yul\":11757:11788   */\n      swap5\n      pop\n        /* \"#utility.yul\":11631:11635   */\n      0x20\n        /* \"#utility.yul\":11628:11629   */\n      dup2\n        /* \"#utility.yul\":11624:11636   */\n      add\n        /* \"#utility.yul\":11619:11636   */\n      swap1\n      pop\n        /* \"#utility.yul\":11594:11802   */\n      jump(tag_279)\n    tag_281:\n        /* \"#utility.yul\":11830:11836   */\n      dup7\n        /* \"#utility.yul\":11821:11828   */\n      dup4\n        /* \"#utility.yul\":11818:11837   */\n      lt\n        /* \"#utility.yul\":11815:11994   */\n      iszero\n      tag_282\n      jumpi\n        /* \"#utility.yul\":11888:11897   */\n      dup5\n        /* \"#utility.yul\":11883:11886   */\n      dup10\n        /* \"#utility.yul\":11879:11898   */\n      add\n        /* \"#utility.yul\":11873:11899   */\n      mload\n        /* \"#utility.yul\":11931:11979   */\n      tag_283\n        /* \"#utility.yul\":11973:11977   */\n      0x1f\n        /* \"#utility.yul\":11965:11971   */\n      dup10\n        /* \"#utility.yul\":11961:11978   */\n      and\n        /* \"#utility.yul\":11950:11959   */\n      dup3\n        /* \"#utility.yul\":11931:11979   */\n      tag_134\n      jump\t// in\n    tag_283:\n        /* \"#utility.yul\":11923:11929   */\n      dup4\n        /* \"#utility.yul\":11916:11980   */\n      sstore\n        /* \"#utility.yul\":11838:11994   */\n      pop\n        /* \"#utility.yul\":11815:11994   */\n    tag_282:\n        /* \"#utility.yul\":12040:12041   */\n      0x01\n        /* \"#utility.yul\":12036:12037   */\n      0x02\n        /* \"#utility.yul\":12028:12034   */\n      dup9\n        /* \"#utility.yul\":12024:12038   */\n      mul\n        /* \"#utility.yul\":12020:12042   */\n      add\n        /* \"#utility.yul\":12014:12018   */\n      dup9\n        /* \"#utility.yul\":12007:12043   */\n      sstore\n        /* \"#utility.yul\":11442:12053   */\n      pop\n      pop\n      pop\n        /* \"#utility.yul\":11405:12292   */\n    tag_274:\n      pop\n        /* \"#utility.yul\":10995:12298   */\n      pop\n      pop\n      pop\n        /* \"#utility.yul\":10903:12298   */\n      pop\n      pop\n      jump\t// out\n\n    auxdata: 0xa26469706673582212208eb33afc93e0a8f832e67a17e65a65829b0fe2cc4c88cbdb51f5f9f957c9ba3464736f6c63430008190033\n}\n",
				"bytecode": {
					"linkReferences": {},
					"object": "6080604052348015600e575f80fd5b50610c218061001c5f395ff3fe608060405234801561000f575f80fd5b50600436106100b2575f3560e01c80638381f58a1161006f5780638381f58a146101a0578063858ced35146101be578063890eba68146101ee578063e00fe2eb1461020c578063f2c9ecd81461022a578063f963393014610248576100b2565b80631f1bd692146100b65780633927f6af146100d45780633fb5c1cb146101045780634f8632ba146101345780635d3a1f9d14610152578063832880e714610182575b5f80fd5b6100be610266565b6040516100cb91906105c3565b60405180910390f35b6100ee60048036038101906100e99190610629565b6102f2565b6040516100fb9190610663565b60405180910390f35b61011e600480360381019061011991906106af565b610322565b60405161012b91906106e9565b60405180910390f35b61013c610332565b6040516101499190610741565b60405180910390f35b61016c60048036038101906101679190610886565b610358565b60405161017991906105c3565b60405180910390f35b61018a6103fa565b6040516101979190610741565b60405180910390f35b6101a8610423565b6040516101b591906106e9565b60405180910390f35b6101d860048036038101906101d391906108f7565b610428565b6040516101e59190610741565b60405180910390f35b6101f6610494565b6040516102039190610663565b60405180910390f35b6102146104a6565b60405161022191906105c3565b60405180910390f35b610232610536565b60405161023f91906106e9565b60405180910390f35b61025061053e565b60405161025d9190610663565b60405180910390f35b600180546102739061094f565b80601f016020809104026020016040519081016040528092919081815260200182805461029f9061094f565b80156102ea5780601f106102c1576101008083540402835291602001916102ea565b820191905f5260205f20905b8154815290600101906020018083116102cd57829003601f168201915b505050505081565b5f8160025f6101000a81548160ff02191690831515021790555060025f9054906101000a900460ff169050919050565b5f815f819055505f549050919050565b600260019054906101000a900473ffffffffffffffffffffffffffffffffffffffff1681565b606081600190816103699190610b1c565b50600180546103779061094f565b80601f01602080910402602001604051908101604052809291908181526020018280546103a39061094f565b80156103ee5780601f106103c5576101008083540402835291602001916103ee565b820191905f5260205f20905b8154815290600101906020018083116103d157829003601f168201915b50505050509050919050565b5f600260019054906101000a900473ffffffffffffffffffffffffffffffffffffffff16905090565b5f5481565b5f81600260016101000a81548173ffffffffffffffffffffffffffffffffffffffff021916908373ffffffffffffffffffffffffffffffffffffffff160217905550600260019054906101000a900473ffffffffffffffffffffffffffffffffffffffff169050919050565b60025f9054906101000a900460ff1681565b6060600180546104b59061094f565b80601f01602080910402602001604051908101604052809291908181526020018280546104e19061094f565b801561052c5780601f106105035761010080835404028352916020019161052c565b820191905f5260205f20905b81548152906001019060200180831161050f57829003601f168201915b5050505050905090565b5f8054905090565b5f60025f9054906101000a900460ff16905090565b5f81519050919050565b5f82825260208201905092915050565b8281835e5f83830152505050565b5f601f19601f8301169050919050565b5f61059582610553565b61059f818561055d565b93506105af81856020860161056d565b6105b88161057b565b840191505092915050565b5f6020820190508181035f8301526105db818461058b565b905092915050565b5f604051905090565b5f80fd5b5f80fd5b5f8115159050919050565b610608816105f4565b8114610612575f80fd5b50565b5f81359050610623816105ff565b92915050565b5f6020828403121561063e5761063d6105ec565b5b5f61064b84828501610615565b91505092915050565b61065d816105f4565b82525050565b5f6020820190506106765f830184610654565b92915050565b5f819050919050565b61068e8161067c565b8114610698575f80fd5b50565b5f813590506106a981610685565b92915050565b5f602082840312156106c4576106c36105ec565b5b5f6106d18482850161069b565b91505092915050565b6106e38161067c565b82525050565b5f6020820190506106fc5f8301846106da565b92915050565b5f73ffffffffffffffffffffffffffffffffffffffff82169050919050565b5f61072b82610702565b9050919050565b61073b81610721565b82525050565b5f6020820190506107545f830184610732565b92915050565b5f80fd5b5f80fd5b7f4e487b71000000000000000000000000000000000000000000000000000000005f52604160045260245ffd5b6107988261057b565b810181811067ffffffffffffffff821117156107b7576107b6610762565b5b80604052505050565b5f6107c96105e3565b90506107d5828261078f565b919050565b5f67ffffffffffffffff8211156107f4576107f3610762565b5b6107fd8261057b565b9050602081019050919050565b828183375f83830152505050565b5f61082a610825846107da565b6107c0565b9050828152602081018484840111156108465761084561075e565b5b61085184828561080a565b509392505050565b5f82601f83011261086d5761086c61075a565b5b813561087d848260208601610818565b91505092915050565b5f6020828403121561089b5761089a6105ec565b5b5f82013567ffffffffffffffff8111156108b8576108b76105f0565b5b6108c484828501610859565b91505092915050565b6108d681610721565b81146108e0575f80fd5b50565b5f813590506108f1816108cd565b92915050565b5f6020828403121561090c5761090b6105ec565b5b5f610919848285016108e3565b91505092915050565b7f4e487b71000000000000000000000000000000000000000000000000000000005f52602260045260245ffd5b5f600282049050600182168061096657607f821691505b60208210810361097957610978610922565b5b50919050565b5f819050815f5260205f209050919050565b5f6020601f8301049050919050565b5f82821b905092915050565b5f600883026109db7fffffffffffffffffffffffffffffffffffffffffffffffffffffffffffffffff826109a0565b6109e586836109a0565b95508019841693508086168417925050509392505050565b5f819050919050565b5f610a20610a1b610a168461067c565b6109fd565b61067c565b9050919050565b5f819050919050565b610a3983610a06565b610a4d610a4582610a27565b8484546109ac565b825550505050565b5f90565b610a61610a55565b610a6c818484610a30565b505050565b5b81811015610a8f57610a845f82610a59565b600181019050610a72565b5050565b601f821115610ad457610aa58161097f565b610aae84610991565b81016020851015610abd578190505b610ad1610ac985610991565b830182610a71565b50505b505050565b5f82821c905092915050565b5f610af45f1984600802610ad9565b1980831691505092915050565b5f610b0c8383610ae5565b9150826002028217905092915050565b610b2582610553565b67ffffffffffffffff811115610b3e57610b3d610762565b5b610b48825461094f565b610b53828285610a93565b5f60209050601f831160018114610b84575f8415610b72578287015190505b610b7c8582610b01565b865550610be3565b601f198416610b928661097f565b5f5b82811015610bb957848901518255600182019150602085019450602081019050610b94565b86831015610bd65784890151610bd2601f891682610ae5565b8355505b6001600288020188555050505b50505050505056fea26469706673582212208eb33afc93e0a8f832e67a17e65a65829b0fe2cc4c88cbdb51f5f9f957c9ba3464736f6c63430008190033",
					"opcodes": "PUSH1 0x80 PUSH1 0x40 MSTORE CALLVALUE DUP1 ISZERO PUSH1 0xE JUMPI PUSH0 DUP1 REVERT JUMPDEST POP PUSH2 0xC21 DUP1 PUSH2 0x1C PUSH0 CODECOPY PUSH0 RETURN INVALID PUSH1 0x80 PUSH1 0x40 MSTORE CALLVALUE DUP1 ISZERO PUSH2 0xF JUMPI PUSH0 DUP1 REVERT JUMPDEST POP PUSH1 0x4 CALLDATASIZE LT PUSH2 0xB2 JUMPI PUSH0 CALLDATALOAD PUSH1 0xE0 SHR DUP1 PUSH4 0x8381F58A GT PUSH2 0x6F JUMPI DUP1 PUSH4 0x8381F58A EQ PUSH2 0x1A0 JUMPI DUP1 PUSH4 0x858CED35 EQ PUSH2 0x1BE JUMPI DUP1 PUSH4 0x890EBA68 EQ PUSH2 0x1EE JUMPI DUP1 PUSH4 0xE00FE2EB EQ PUSH2 0x20C JUMPI DUP1 PUSH4 0xF2C9ECD8 EQ PUSH2 0x22A JUMPI DUP1 PUSH4 0xF9633930 EQ PUSH2 0x248 JUMPI PUSH2 0xB2 JUMP JUMPDEST DUP1 PUSH4 0x1F1BD692 EQ PUSH2 0xB6 JUMPI DUP1 PUSH4 0x3927F6AF EQ PUSH2 0xD4 JUMPI DUP1 PUSH4 0x3FB5C1CB EQ PUSH2 0x104 JUMPI DUP1 PUSH4 0x4F8632BA EQ PUSH2 0x134 JUMPI DUP1 PUSH4 0x5D3A1F9D EQ PUSH2 0x152 JUMPI DUP1 PUSH4 0x832880E7 EQ PUSH2 0x182 JUMPI JUMPDEST PUSH0 DUP1 REVERT JUMPDEST PUSH2 0xBE PUSH2 0x266 JUMP JUMPDEST PUSH1 0x40 MLOAD PUSH2 0xCB SWAP2 SWAP1 PUSH2 0x5C3 JUMP JUMPDEST PUSH1 0x40 MLOAD DUP1 SWAP2 SUB SWAP1 RETURN JUMPDEST PUSH2 0xEE PUSH1 0x4 DUP1 CALLDATASIZE SUB DUP2 ADD SWAP1 PUSH2 0xE9 SWAP2 SWAP1 PUSH2 0x629 JUMP JUMPDEST PUSH2 0x2F2 JUMP JUMPDEST PUSH1 0x40 MLOAD PUSH2 0xFB SWAP2 SWAP1 PUSH2 0x663 JUMP JUMPDEST PUSH1 0x40 MLOAD DUP1 SWAP2 SUB SWAP1 RETURN JUMPDEST PUSH2 0x11E PUSH1 0x4 DUP1 CALLDATASIZE SUB DUP2 ADD SWAP1 PUSH2 0x119 SWAP2 SWAP1 PUSH2 0x6AF JUMP JUMPDEST PUSH2 0x322 JUMP JUMPDEST PUSH1 0x40 MLOAD PUSH2 0x12B SWAP2 SWAP1 PUSH2 0x6E9 JUMP JUMPDEST PUSH1 0x40 MLOAD DUP1 SWAP2 SUB SWAP1 RETURN JUMPDEST PUSH2 0x13C PUSH2 0x332 JUMP JUMPDEST PUSH1 0x40 MLOAD PUSH2 0x149 SWAP2 SWAP1 PUSH2 0x741 JUMP JUMPDEST PUSH1 0x40 MLOAD DUP1 SWAP2 SUB SWAP1 RETURN JUMPDEST PUSH2 0x16C PUSH1 0x4 DUP1 CALLDATASIZE SUB DUP2 ADD SWAP1 PUSH2 0x167 SWAP2 SWAP1 PUSH2 0x886 JUMP JUMPDEST PUSH2 0x358 JUMP JUMPDEST PUSH1 0x40 MLOAD PUSH2 0x179 SWAP2 SWAP1 PUSH2 0x5C3 JUMP JUMPDEST PUSH1 0x40 MLOAD DUP1 SWAP2 SUB SWAP1 RETURN JUMPDEST PUSH2 0x18A PUSH2 0x3FA JUMP JUMPDEST PUSH1 0x40 MLOAD PUSH2 0x197 SWAP2 SWAP1 PUSH2 0x741 JUMP JUMPDEST PUSH1 0x40 MLOAD DUP1 SWAP2 SUB SWAP1 RETURN JUMPDEST PUSH2 0x1A8 PUSH2 0x423 JUMP JUMPDEST PUSH1 0x40 MLOAD PUSH2 0x1B5 SWAP2 SWAP1 PUSH2 0x6E9 JUMP JUMPDEST PUSH1 0x40 MLOAD DUP1 SWAP2 SUB SWAP1 RETURN JUMPDEST PUSH2 0x1D8 PUSH1 0x4 DUP1 CALLDATASIZE SUB DUP2 ADD SWAP1 PUSH2 0x1D3 SWAP2 SWAP1 PUSH2 0x8F7 JUMP JUMPDEST PUSH2 0x428 JUMP JUMPDEST PUSH1 0x40 MLOAD PUSH2 0x1E5 SWAP2 SWAP1 PUSH2 0x741 JUMP JUMPDEST PUSH1 0x40 MLOAD DUP1 SWAP2 SUB SWAP1 RETURN JUMPDEST PUSH2 0x1F6 PUSH2 0x494 JUMP JUMPDEST PUSH1 0x40 MLOAD PUSH2 0x203 SWAP2 SWAP1 PUSH2 0x663 JUMP JUMPDEST PUSH1 0x40 MLOAD DUP1 SWAP2 SUB SWAP1 RETURN JUMPDEST PUSH2 0x214 PUSH2 0x4A6 JUMP JUMPDEST PUSH1 0x40 MLOAD PUSH2 0x221 SWAP2 SWAP1 PUSH2 0x5C3 JUMP JUMPDEST PUSH1 0x40 MLOAD DUP1 SWAP2 SUB SWAP1 RETURN JUMPDEST PUSH2 0x232 PUSH2 0x536 JUMP JUMPDEST PUSH1 0x40 MLOAD PUSH2 0x23F SWAP2 SWAP1 PUSH2 0x6E9 JUMP JUMPDEST PUSH1 0x40 MLOAD DUP1 SWAP2 SUB SWAP1 RETURN JUMPDEST PUSH2 0x250 PUSH2 0x53E JUMP JUMPDEST PUSH1 0x40 MLOAD PUSH2 0x25D SWAP2 SWAP1 PUSH2 0x663 JUMP JUMPDEST PUSH1 0x40 MLOAD DUP1 SWAP2 SUB SWAP1 RETURN JUMPDEST PUSH1 0x1 DUP1 SLOAD PUSH2 0x273 SWAP1 PUSH2 0x94F JUMP JUMPDEST DUP1 PUSH1 0x1F ADD PUSH1 0x20 DUP1 SWAP2 DIV MUL PUSH1 0x20 ADD PUSH1 0x40 MLOAD SWAP1 DUP2 ADD PUSH1 0x40 MSTORE DUP1 SWAP3 SWAP2 SWAP1 DUP2 DUP2 MSTORE PUSH1 0x20 ADD DUP3 DUP1 SLOAD PUSH2 0x29F SWAP1 PUSH2 0x94F JUMP JUMPDEST DUP1 ISZERO PUSH2 0x2EA JUMPI DUP1 PUSH1 0x1F LT PUSH2 0x2C1 JUMPI PUSH2 0x100 DUP1 DUP4 SLOAD DIV MUL DUP4 MSTORE SWAP2 PUSH1 0x20 ADD SWAP2 PUSH2 0x2EA JUMP JUMPDEST DUP3 ADD SWAP2 SWAP1 PUSH0 MSTORE PUSH1 0x20 PUSH0 KECCAK256 SWAP1 JUMPDEST DUP2 SLOAD DUP2 MSTORE SWAP1 PUSH1 0x1 ADD SWAP1 PUSH1 0x20 ADD DUP1 DUP4 GT PUSH2 0x2CD JUMPI DUP3 SWAP1 SUB PUSH1 0x1F AND DUP3 ADD SWAP2 JUMPDEST POP POP POP POP POP DUP2 JUMP JUMPDEST PUSH0 DUP2 PUSH1 0x2 PUSH0 PUSH2 0x100 EXP DUP2 SLOAD DUP2 PUSH1 0xFF MUL NOT AND SWAP1 DUP4 ISZERO ISZERO MUL OR SWAP1 SSTORE POP PUSH1 0x2 PUSH0 SWAP1 SLOAD SWAP1 PUSH2 0x100 EXP SWAP1 DIV PUSH1 0xFF AND SWAP1 POP SWAP2 SWAP1 POP JUMP JUMPDEST PUSH0 DUP2 PUSH0 DUP2 SWAP1 SSTORE POP PUSH0 SLOAD SWAP1 POP SWAP2 SWAP1 POP JUMP JUMPDEST PUSH1 0x2 PUSH1 0x1 SWAP1 SLOAD SWAP1 PUSH2 0x100 EXP SWAP1 DIV PUSH20 0xFFFFFFFFFFFFFFFFFFFFFFFFFFFFFFFFFFFFFFFF AND DUP2 JUMP JUMPDEST PUSH1 0x60 DUP2 PUSH1 0x1 SWAP1 DUP2 PUSH2 0x369 SWAP2 SWAP1 PUSH2 0xB1C JUMP JUMPDEST POP PUSH1 0x1 DUP1 SLOAD PUSH2 0x377 SWAP1 PUSH2 0x94F JUMP JUMPDEST DUP1 PUSH1 0x1F ADD PUSH1 0x20 DUP1 SWAP2 DIV MUL PUSH1 0x20 ADD PUSH1 0x40 MLOAD SWAP1 DUP2 ADD PUSH1 0x40 MSTORE DUP1 SWAP3 SWAP2 SWAP1 DUP2 DUP2 MSTORE PUSH1 0x20 ADD DUP3 DUP1 SLOAD PUSH2 0x3A3 SWAP1 PUSH2 0x94F JUMP JUMPDEST DUP1 ISZERO PUSH2 0x3EE JUMPI DUP1 PUSH1 0x1F LT PUSH2 0x3C5 JUMPI PUSH2 0x100 DUP1 DUP4 SLOAD DIV MUL DUP4 MSTORE SWAP2 PUSH1 0x20 ADD SWAP2 PUSH2 0x3EE JUMP JUMPDEST DUP3 ADD SWAP2 SWAP1 PUSH0 MSTORE PUSH1 0x20 PUSH0 KECCAK256 SWAP1 JUMPDEST DUP2 SLOAD DUP2 MSTORE SWAP1 PUSH1 0x1 ADD SWAP1 PUSH1 0x20 ADD DUP1 DUP4 GT PUSH2 0x3D1 JUMPI DUP3 SWAP1 SUB PUSH1 0x1F AND DUP3 ADD SWAP2 JUMPDEST POP POP POP POP POP SWAP1 POP SWAP2 SWAP1 POP JUMP JUMPDEST PUSH0 PUSH1 0x2 PUSH1 0x1 SWAP1 SLOAD SWAP1 PUSH2 0x100 EXP SWAP1 DIV PUSH20 0xFFFFFFFFFFFFFFFFFFFFFFFFFFFFFFFFFFFFFFFF AND SWAP1 POP SWAP1 JUMP JUMPDEST PUSH0 SLOAD DUP2 JUMP JUMPDEST PUSH0 DUP2 PUSH1 0x2 PUSH1 0x1 PUSH2 0x100 EXP DUP2 SLOAD DUP2 PUSH20 0xFFFFFFFFFFFFFFFFFFFFFFFFFFFFFFFFFFFFFFFF MUL NOT AND SWAP1 DUP4 PUSH20 0xFFFFFFFFFFFFFFFFFFFFFFFFFFFFFFFFFFFFFFFF AND MUL OR SWAP1 SSTORE POP PUSH1 0x2 PUSH1 0x1 SWAP1 SLOAD SWAP1 PUSH2 0x100 EXP SWAP1 DIV PUSH20 0xFFFFFFFFFFFFFFFFFFFFFFFFFFFFFFFFFFFFFFFF AND SWAP1 POP SWAP2 SWAP1 POP JUMP JUMPDEST PUSH1 0x2 PUSH0 SWAP1 SLOAD SWAP1 PUSH2 0x100 EXP SWAP1 DIV PUSH1 0xFF AND DUP2 JUMP JUMPDEST PUSH1 0x60 PUSH1 0x1 DUP1 SLOAD PUSH2 0x4B5 SWAP1 PUSH2 0x94F JUMP JUMPDEST DUP1 PUSH1 0x1F ADD PUSH1 0x20 DUP1 SWAP2 DIV MUL PUSH1 0x20 ADD PUSH1 0x40 MLOAD SWAP1 DUP2 ADD PUSH1 0x40 MSTORE DUP1 SWAP3 SWAP2 SWAP1 DUP2 DUP2 MSTORE PUSH1 0x20 ADD DUP3 DUP1 SLOAD PUSH2 0x4E1 SWAP1 PUSH2 0x94F JUMP JUMPDEST DUP1 ISZERO PUSH2 0x52C JUMPI DUP1 PUSH1 0x1F LT PUSH2 0x503 JUMPI PUSH2 0x100 DUP1 DUP4 SLOAD DIV MUL DUP4 MSTORE SWAP2 PUSH1 0x20 ADD SWAP2 PUSH2 0x52C JUMP JUMPDEST DUP3 ADD SWAP2 SWAP1 PUSH0 MSTORE PUSH1 0x20 PUSH0 KECCAK256 SWAP1 JUMPDEST DUP2 SLOAD DUP2 MSTORE SWAP1 PUSH1 0x1 ADD SWAP1 PUSH1 0x20 ADD DUP1 DUP4 GT PUSH2 0x50F JUMPI DUP3 SWAP1 SUB PUSH1 0x1F AND DUP3 ADD SWAP2 JUMPDEST POP POP POP POP POP SWAP1 POP SWAP1 JUMP JUMPDEST PUSH0 DUP1 SLOAD SWAP1 POP SWAP1 JUMP JUMPDEST PUSH0 PUSH1 0x2 PUSH0 SWAP1 SLOAD SWAP1 PUSH2 0x100 EXP SWAP1 DIV PUSH1 0xFF AND SWAP1 POP SWAP1 JUMP JUMPDEST PUSH0 DUP2 MLOAD SWAP1 POP SWAP2 SWAP1 POP JUMP JUMPDEST PUSH0 DUP3 DUP3 MSTORE PUSH1 0x20 DUP3 ADD SWAP1 POP SWAP3 SWAP2 POP POP JUMP JUMPDEST DUP3 DUP2 DUP4 MCOPY PUSH0 DUP4 DUP4 ADD MSTORE POP POP POP JUMP JUMPDEST PUSH0 PUSH1 0x1F NOT PUSH1 0x1F DUP4 ADD AND SWAP1 POP SWAP2 SWAP1 POP JUMP JUMPDEST PUSH0 PUSH2 0x595 DUP3 PUSH2 0x553 JUMP JUMPDEST PUSH2 0x59F DUP2 DUP6 PUSH2 0x55D JUMP JUMPDEST SWAP4 POP PUSH2 0x5AF DUP2 DUP6 PUSH1 0x20 DUP7 ADD PUSH2 0x56D JUMP JUMPDEST PUSH2 0x5B8 DUP2 PUSH2 0x57B JUMP JUMPDEST DUP5 ADD SWAP2 POP POP SWAP3 SWAP2 POP POP JUMP JUMPDEST PUSH0 PUSH1 0x20 DUP3 ADD SWAP1 POP DUP2 DUP2 SUB PUSH0 DUP4 ADD MSTORE PUSH2 0x5DB DUP2 DUP5 PUSH2 0x58B JUMP JUMPDEST SWAP1 POP SWAP3 SWAP2 POP POP JUMP JUMPDEST PUSH0 PUSH1 0x40 MLOAD SWAP1 POP SWAP1 JUMP JUMPDEST PUSH0 DUP1 REVERT JUMPDEST PUSH0 DUP1 REVERT JUMPDEST PUSH0 DUP2 ISZERO ISZERO SWAP1 POP SWAP2 SWAP1 POP JUMP JUMPDEST PUSH2 0x608 DUP2 PUSH2 0x5F4 JUMP JUMPDEST DUP2 EQ PUSH2 0x612 JUMPI PUSH0 DUP1 REVERT JUMPDEST POP JUMP JUMPDEST PUSH0 DUP2 CALLDATALOAD SWAP1 POP PUSH2 0x623 DUP2 PUSH2 0x5FF JUMP JUMPDEST SWAP3 SWAP2 POP POP JUMP JUMPDEST PUSH0 PUSH1 0x20 DUP3 DUP5 SUB SLT ISZERO PUSH2 0x63E JUMPI PUSH2 0x63D PUSH2 0x5EC JUMP JUMPDEST JUMPDEST PUSH0 PUSH2 0x64B DUP5 DUP3 DUP6 ADD PUSH2 0x615 JUMP JUMPDEST SWAP2 POP POP SWAP3 SWAP2 POP POP JUMP JUMPDEST PUSH2 0x65D DUP2 PUSH2 0x5F4 JUMP JUMPDEST DUP3 MSTORE POP POP JUMP JUMPDEST PUSH0 PUSH1 0x20 DUP3 ADD SWAP1 POP PUSH2 0x676 PUSH0 DUP4 ADD DUP5 PUSH2 0x654 JUMP JUMPDEST SWAP3 SWAP2 POP POP JUMP JUMPDEST PUSH0 DUP2 SWAP1 POP SWAP2 SWAP1 POP JUMP JUMPDEST PUSH2 0x68E DUP2 PUSH2 0x67C JUMP JUMPDEST DUP2 EQ PUSH2 0x698 JUMPI PUSH0 DUP1 REVERT JUMPDEST POP JUMP JUMPDEST PUSH0 DUP2 CALLDATALOAD SWAP1 POP PUSH2 0x6A9 DUP2 PUSH2 0x685 JUMP JUMPDEST SWAP3 SWAP2 POP POP JUMP JUMPDEST PUSH0 PUSH1 0x20 DUP3 DUP5 SUB SLT ISZERO PUSH2 0x6C4 JUMPI PUSH2 0x6C3 PUSH2 0x5EC JUMP JUMPDEST JUMPDEST PUSH0 PUSH2 0x6D1 DUP5 DUP3 DUP6 ADD PUSH2 0x69B JUMP JUMPDEST SWAP2 POP POP SWAP3 SWAP2 POP POP JUMP JUMPDEST PUSH2 0x6E3 DUP2 PUSH2 0x67C JUMP JUMPDEST DUP3 MSTORE POP POP JUMP JUMPDEST PUSH0 PUSH1 0x20 DUP3 ADD SWAP1 POP PUSH2 0x6FC PUSH0 DUP4 ADD DUP5 PUSH2 0x6DA JUMP JUMPDEST SWAP3 SWAP2 POP POP JUMP JUMPDEST PUSH0 PUSH20 0xFFFFFFFFFFFFFFFFFFFFFFFFFFFFFFFFFFFFFFFF DUP3 AND SWAP1 POP SWAP2 SWAP1 POP JUMP JUMPDEST PUSH0 PUSH2 0x72B DUP3 PUSH2 0x702 JUMP JUMPDEST SWAP1 POP SWAP2 SWAP1 POP JUMP JUMPDEST PUSH2 0x73B DUP2 PUSH2 0x721 JUMP JUMPDEST DUP3 MSTORE POP POP JUMP JUMPDEST PUSH0 PUSH1 0x20 DUP3 ADD SWAP1 POP PUSH2 0x754 PUSH0 DUP4 ADD DUP5 PUSH2 0x732 JUMP JUMPDEST SWAP3 SWAP2 POP POP JUMP JUMPDEST PUSH0 DUP1 REVERT JUMPDEST PUSH0 DUP1 REVERT JUMPDEST PUSH32 0x4E487B7100000000000000000000000000000000000000000000000000000000 PUSH0 MSTORE PUSH1 0x41 PUSH1 0x4 MSTORE PUSH1 0x24 PUSH0 REVERT JUMPDEST PUSH2 0x798 DUP3 PUSH2 0x57B JUMP JUMPDEST DUP2 ADD DUP2 DUP2 LT PUSH8 0xFFFFFFFFFFFFFFFF DUP3 GT OR ISZERO PUSH2 0x7B7 JUMPI PUSH2 0x7B6 PUSH2 0x762 JUMP JUMPDEST JUMPDEST DUP1 PUSH1 0x40 MSTORE POP POP POP JUMP JUMPDEST PUSH0 PUSH2 0x7C9 PUSH2 0x5E3 JUMP JUMPDEST SWAP1 POP PUSH2 0x7D5 DUP3 DUP3 PUSH2 0x78F JUMP JUMPDEST SWAP2 SWAP1 POP JUMP JUMPDEST PUSH0 PUSH8 0xFFFFFFFFFFFFFFFF DUP3 GT ISZERO PUSH2 0x7F4 JUMPI PUSH2 0x7F3 PUSH2 0x762 JUMP JUMPDEST JUMPDEST PUSH2 0x7FD DUP3 PUSH2 0x57B JUMP JUMPDEST SWAP1 POP PUSH1 0x20 DUP2 ADD SWAP1 POP SWAP2 SWAP1 POP JUMP JUMPDEST DUP3 DUP2 DUP4 CALLDATACOPY PUSH0 DUP4 DUP4 ADD MSTORE POP POP POP JUMP JUMPDEST PUSH0 PUSH2 0x82A PUSH2 0x825 DUP5 PUSH2 0x7DA JUMP JUMPDEST PUSH2 0x7C0 JUMP JUMPDEST SWAP1 POP DUP3 DUP2 MSTORE PUSH1 0x20 DUP2 ADD DUP5 DUP5 DUP5 ADD GT ISZERO PUSH2 0x846 JUMPI PUSH2 0x845 PUSH2 0x75E JUMP JUMPDEST JUMPDEST PUSH2 0x851 DUP5 DUP3 DUP6 PUSH2 0x80A JUMP JUMPDEST POP SWAP4 SWAP3 POP POP POP JUMP JUMPDEST PUSH0 DUP3 PUSH1 0x1F DUP4 ADD SLT PUSH2 0x86D JUMPI PUSH2 0x86C PUSH2 0x75A JUMP JUMPDEST JUMPDEST DUP2 CALLDATALOAD PUSH2 0x87D DUP5 DUP3 PUSH1 0x20 DUP7 ADD PUSH2 0x818 JUMP JUMPDEST SWAP2 POP POP SWAP3 SWAP2 POP POP JUMP JUMPDEST PUSH0 PUSH1 0x20 DUP3 DUP5 SUB SLT ISZERO PUSH2 0x89B JUMPI PUSH2 0x89A PUSH2 0x5EC JUMP JUMPDEST JUMPDEST PUSH0 DUP3 ADD CALLDATALOAD PUSH8 0xFFFFFFFFFFFFFFFF DUP2 GT ISZERO PUSH2 0x8B8 JUMPI PUSH2 0x8B7 PUSH2 0x5F0 JUMP JUMPDEST JUMPDEST PUSH2 0x8C4 DUP5 DUP3 DUP6 ADD PUSH2 0x859 JUMP JUMPDEST SWAP2 POP POP SWAP3 SWAP2 POP POP JUMP JUMPDEST PUSH2 0x8D6 DUP2 PUSH2 0x721 JUMP JUMPDEST DUP2 EQ PUSH2 0x8E0 JUMPI PUSH0 DUP1 REVERT JUMPDEST POP JUMP JUMPDEST PUSH0 DUP2 CALLDATALOAD SWAP1 POP PUSH2 0x8F1 DUP2 PUSH2 0x8CD JUMP JUMPDEST SWAP3 SWAP2 POP POP JUMP JUMPDEST PUSH0 PUSH1 0x20 DUP3 DUP5 SUB SLT ISZERO PUSH2 0x90C JUMPI PUSH2 0x90B PUSH2 0x5EC JUMP JUMPDEST JUMPDEST PUSH0 PUSH2 0x919 DUP5 DUP3 DUP6 ADD PUSH2 0x8E3 JUMP JUMPDEST SWAP2 POP POP SWAP3 SWAP2 POP POP JUMP JUMPDEST PUSH32 0x4E487B7100000000000000000000000000000000000000000000000000000000 PUSH0 MSTORE PUSH1 0x22 PUSH1 0x4 MSTORE PUSH1 0x24 PUSH0 REVERT JUMPDEST PUSH0 PUSH1 0x2 DUP3 DIV SWAP1 POP PUSH1 0x1 DUP3 AND DUP1 PUSH2 0x966 JUMPI PUSH1 0x7F DUP3 AND SWAP2 POP JUMPDEST PUSH1 0x20 DUP3 LT DUP2 SUB PUSH2 0x979 JUMPI PUSH2 0x978 PUSH2 0x922 JUMP JUMPDEST JUMPDEST POP SWAP2 SWAP1 POP JUMP JUMPDEST PUSH0 DUP2 SWAP1 POP DUP2 PUSH0 MSTORE PUSH1 0x20 PUSH0 KECCAK256 SWAP1 POP SWAP2 SWAP1 POP JUMP JUMPDEST PUSH0 PUSH1 0x20 PUSH1 0x1F DUP4 ADD DIV SWAP1 POP SWAP2 SWAP1 POP JUMP JUMPDEST PUSH0 DUP3 DUP3 SHL SWAP1 POP SWAP3 SWAP2 POP POP JUMP JUMPDEST PUSH0 PUSH1 0x8 DUP4 MUL PUSH2 0x9DB PUSH32 0xFFFFFFFFFFFFFFFFFFFFFFFFFFFFFFFFFFFFFFFFFFFFFFFFFFFFFFFFFFFFFFFF DUP3 PUSH2 0x9A0 JUMP JUMPDEST PUSH2 0x9E5 DUP7 DUP4 PUSH2 0x9A0 JUMP JUMPDEST SWAP6 POP DUP1 NOT DUP5 AND SWAP4 POP DUP1 DUP7 AND DUP5 OR SWAP3 POP POP POP SWAP4 SWAP3 POP POP POP JUMP JUMPDEST PUSH0 DUP2 SWAP1 POP SWAP2 SWAP1 POP JUMP JUMPDEST PUSH0 PUSH2 0xA20 PUSH2 0xA1B PUSH2 0xA16 DUP5 PUSH2 0x67C JUMP JUMPDEST PUSH2 0x9FD JUMP JUMPDEST PUSH2 0x67C JUMP JUMPDEST SWAP1 POP SWAP2 SWAP1 POP JUMP JUMPDEST PUSH0 DUP2 SWAP1 POP SWAP2 SWAP1 POP JUMP JUMPDEST PUSH2 0xA39 DUP4 PUSH2 0xA06 JUMP JUMPDEST PUSH2 0xA4D PUSH2 0xA45 DUP3 PUSH2 0xA27 JUMP JUMPDEST DUP5 DUP5 SLOAD PUSH2 0x9AC JUMP JUMPDEST DUP3 SSTORE POP POP POP POP JUMP JUMPDEST PUSH0 SWAP1 JUMP JUMPDEST PUSH2 0xA61 PUSH2 0xA55 JUMP JUMPDEST PUSH2 0xA6C DUP2 DUP5 DUP5 PUSH2 0xA30 JUMP JUMPDEST POP POP POP JUMP JUMPDEST JUMPDEST DUP2 DUP2 LT ISZERO PUSH2 0xA8F JUMPI PUSH2 0xA84 PUSH0 DUP3 PUSH2 0xA59 JUMP JUMPDEST PUSH1 0x1 DUP2 ADD SWAP1 POP PUSH2 0xA72 JUMP JUMPDEST POP POP JUMP JUMPDEST PUSH1 0x1F DUP3 GT ISZERO PUSH2 0xAD4 JUMPI PUSH2 0xAA5 DUP2 PUSH2 0x97F JUMP JUMPDEST PUSH2 0xAAE DUP5 PUSH2 0x991 JUMP JUMPDEST DUP2 ADD PUSH1 0x20 DUP6 LT ISZERO PUSH2 0xABD JUMPI DUP2 SWAP1 POP JUMPDEST PUSH2 0xAD1 PUSH2 0xAC9 DUP6 PUSH2 0x991 JUMP JUMPDEST DUP4 ADD DUP3 PUSH2 0xA71 JUMP JUMPDEST POP POP JUMPDEST POP POP POP JUMP JUMPDEST PUSH0 DUP3 DUP3 SHR SWAP1 POP SWAP3 SWAP2 POP POP JUMP JUMPDEST PUSH0 PUSH2 0xAF4 PUSH0 NOT DUP5 PUSH1 0x8 MUL PUSH2 0xAD9 JUMP JUMPDEST NOT DUP1 DUP4 AND SWAP2 POP POP SWAP3 SWAP2 POP POP JUMP JUMPDEST PUSH0 PUSH2 0xB0C DUP4 DUP4 PUSH2 0xAE5 JUMP JUMPDEST SWAP2 POP DUP3 PUSH1 0x2 MUL DUP3 OR SWAP1 POP SWAP3 SWAP2 POP POP JUMP JUMPDEST PUSH2 0xB25 DUP3 PUSH2 0x553 JUMP JUMPDEST PUSH8 0xFFFFFFFFFFFFFFFF DUP2 GT ISZERO PUSH2 0xB3E JUMPI PUSH2 0xB3D PUSH2 0x762 JUMP JUMPDEST JUMPDEST PUSH2 0xB48 DUP3 SLOAD PUSH2 0x94F JUMP JUMPDEST PUSH2 0xB53 DUP3 DUP3 DUP6 PUSH2 0xA93 JUMP JUMPDEST PUSH0 PUSH1 0x20 SWAP1 POP PUSH1 0x1F DUP4 GT PUSH1 0x1 DUP2 EQ PUSH2 0xB84 JUMPI PUSH0 DUP5 ISZERO PUSH2 0xB72 JUMPI DUP3 DUP8 ADD MLOAD SWAP1 POP JUMPDEST PUSH2 0xB7C DUP6 DUP3 PUSH2 0xB01 JUMP JUMPDEST DUP7 SSTORE POP PUSH2 0xBE3 JUMP JUMPDEST PUSH1 0x1F NOT DUP5 AND PUSH2 0xB92 DUP7 PUSH2 0x97F JUMP JUMPDEST PUSH0 JUMPDEST DUP3 DUP2 LT ISZERO PUSH2 0xBB9 JUMPI DUP5 DUP10 ADD MLOAD DUP3 SSTORE PUSH1 0x1 DUP3 ADD SWAP2 POP PUSH1 0x20 DUP6 ADD SWAP5 POP PUSH1 0x20 DUP2 ADD SWAP1 POP PUSH2 0xB94 JUMP JUMPDEST DUP7 DUP4 LT ISZERO PUSH2 0xBD6 JUMPI DUP5 DUP10 ADD MLOAD PUSH2 0xBD2 PUSH1 0x1F DUP10 AND DUP3 PUSH2 0xAE5 JUMP JUMPDEST DUP4 SSTORE POP JUMPDEST PUSH1 0x1 PUSH1 0x2 DUP9 MUL ADD DUP9 SSTORE POP POP POP JUMPDEST POP POP POP POP POP POP JUMP INVALID LOG2 PUSH5 0x6970667358 0x22 SLT KECCAK256 DUP15 0xB3 GASPRICE 0xFC SWAP4 0xE0 0xA8 0xF8 ORIGIN 0xE6 PUSH27 0x17E65A65829B0FE2CC4C88CBDB51F5F9F957C9BA3464736F6C6343 STOP ADDMOD NOT STOP CALLER "
				},
				"gasEstimates": {
					"creation": {
						"codeDepositCost": "621000",
						"executionCost": "655",
						"totalCost": "621655"
					},
					"external": {
						"flag()": "2510",
						"getFlag()": "2583",
						"getNumber()": "2520",
						"getText()": "infinite",
						"getUser()": "2677",
						"number()": "2424",
						"setFlag(bool)": "infinite",
						"setNumber(uint256)": "infinite",
						"setText(string)": "infinite",
						"setUser(address)": "infinite",
						"text()": "infinite",
						"user()": "2626"
					}
				},
				"methodIdentifiers": {
					"flag()": "890eba68",
					"getFlag()": "f9633930",
					"getNumber()": "f2c9ecd8",
					"getText()": "e00fe2eb",
					"getUser()": "832880e7",
					"number()": "8381f58a",
					"setFlag(bool)": "3927f6af",
					"setNumber(uint256)": "3fb5c1cb",
					"setText(string)": "5d3a1f9d",
					"setUser(address)": "858ced35",
					"text()": "1f1bd692",
					"user()": "4f8632ba"
				}
			},
			"storageLayout": {
				"storage": [
					{
						"astId": 3,
						"contract": "declare.sol:SimpleContract",
						"label": "number",
						"offset": 0,
						"slot": "0",
						"type": "t_uint256"
					},
					{
						"astId": 5,
						"contract": "declare.sol:SimpleContract",
						"label": "text",
						"offset": 0,
						"slot": "1",
						"type": "t_string_storage"
					},
					{
						"astId": 7,
						"contract": "declare.sol:SimpleContract",
						"label": "flag",
						"offset": 0,
						"slot": "2",
						"type": "t_bool"
					},
					{
						"astId": 9,
						"contract": "declare.sol:SimpleContract",
						"label": "user",
						"offset": 1,
						"slot": "2",
						"type": "t_address"
					}
				],
				"types": {
					"t_address": {
						"encoding": "inplace",
						"label": "address",
						"numberOfBytes": "20"
					},
					"t_bool": {
						"encoding": "inplace",
						"label": "bool",
						"numberOfBytes": "1"
					},
					"t_string_storage": {
						"encoding": "bytes",
						"label": "string",
						"numberOfBytes": "32"
					},
					"t_uint256": {
						"encoding": "inplace",
						"label": "uint256",
						"numberOfBytes": "32"
					}
				}
			},
			"userdoc": {
				"kind": "user",
				"methods": {},
				"version": 1
			}
		}
	}
}