{
	"gasconversion.sol": {
		"EtherReceiver": {
			"abi": [
				{
					"inputs": [],
					"name": "balance",
					"outputs": [
						{
							"internalType": "uint256",
							"name": "",
							"type": "uint256"
						}
					],
					"stateMutability": "view",
					"type": "function"
				},
				{
					"inputs": [],
					"name": "deposit",
					"outputs": [],
					"stateMutability": "payable",
					"type": "function"
				},
				{
					"inputs": [],
					"name": "getBalanceInEther",
					"outputs": [
						{
							"internalType": "uint256",
							"name": "",
							"type": "uint256"
						}
					],
					"stateMutability": "view",
					"type": "function"
				},
				{
					"inputs": [],
					"name": "getBalanceInGwei",
					"outputs": [
						{
							"internalType": "uint256",
							"name": "",
							"type": "uint256"
						}
					],
					"stateMutability": "view",
					"type": "function"
				},
				{
					"inputs": [],
					"name": "getBalanceInWei",
					"outputs": [
						{
							"internalType": "uint256",
							"name": "",
							"type": "uint256"
						}
					],
					"stateMutability": "view",
					"type": "function"
				},
				{
					"stateMutability": "payable",
					"type": "receive"
				}
			],
			"devdoc": {
				"kind": "dev",
				"methods": {},
				"version": 1
			},
			"evm": {
				"assembly": "    /* \"gasconversion.sol\":60:1017  contract EtherReceiver {... */\n  mstore(0x40, 0x80)\n  callvalue\n  dup1\n  iszero\n  tag_1\n  jumpi\n  0x00\n  dup1\n  revert\ntag_1:\n  pop\n  dataSize(sub_0)\n  dup1\n  dataOffset(sub_0)\n  0x00\n  codecopy\n  0x00\n  return\nstop\n\nsub_0: assembly {\n        /* \"gasconversion.sol\":60:1017  contract EtherReceiver {... */\n      mstore(0x40, 0x80)\n      jumpi(tag_1, lt(calldatasize, 0x04))\n      shr(0xe0, calldataload(0x00))\n      dup1\n      0x18b95fbf\n      eq\n      tag_3\n      jumpi\n      dup1\n      0x1fbd7a1a\n      eq\n      tag_4\n      jumpi\n      dup1\n      0x359c09b5\n      eq\n      tag_5\n      jumpi\n      dup1\n      0xb69ef8a8\n      eq\n      tag_6\n      jumpi\n      dup1\n      0xd0e30db0\n      eq\n      tag_7\n      jumpi\n      jump(tag_2)\n    tag_1:\n      jumpi(tag_2, calldatasize)\n        /* \"gasconversion.sol\":945:954  msg.value */\n      callvalue\n        /* \"gasconversion.sol\":934:941  balance */\n      0x00\n      dup1\n        /* \"gasconversion.sol\":934:954  balance += msg.value */\n      dup3\n      dup3\n      sload\n      tag_10\n      swap2\n      swap1\n      tag_11\n      jump\t// in\n    tag_10:\n      swap3\n      pop\n      pop\n      dup2\n      swap1\n      sstore\n      stop\n        /* \"gasconversion.sol\":60:1017  contract EtherReceiver {... */\n    tag_2:\n      0x00\n      dup1\n      revert\n        /* \"gasconversion.sol\":360:466  function getBalanceInWei() external view returns (uint256) {... */\n    tag_3:\n      callvalue\n      dup1\n      iszero\n      tag_12\n      jumpi\n      0x00\n      dup1\n      revert\n    tag_12:\n      pop\n      tag_13\n      tag_14\n      jump\t// in\n    tag_13:\n      mload(0x40)\n      tag_15\n      swap2\n      swap1\n      tag_16\n      jump\t// in\n    tag_15:\n      mload(0x40)\n      dup1\n      swap2\n      sub\n      swap1\n      return\n        /* \"gasconversion.sol\":527:643  function getBalanceInGwei() external view returns (uint256) {... */\n    tag_4:\n      callvalue\n      dup1\n      iszero\n      tag_17\n      jumpi\n      0x00\n      dup1\n      revert\n    tag_17:\n      pop\n      tag_18\n      tag_19\n      jump\t// in\n    tag_18:\n      mload(0x40)\n      tag_20\n      swap2\n      swap1\n      tag_16\n      jump\t// in\n    tag_20:\n      mload(0x40)\n      dup1\n      swap2\n      sub\n      swap1\n      return\n        /* \"gasconversion.sol\":705:823  function getBalanceInEther() external view returns (uint256) {... */\n    tag_5:\n      callvalue\n      dup1\n      iszero\n      tag_21\n      jumpi\n      0x00\n      dup1\n      revert\n    tag_21:\n      pop\n      tag_22\n      tag_23\n      jump\t// in\n    tag_22:\n      mload(0x40)\n      tag_24\n      swap2\n      swap1\n      tag_16\n      jump\t// in\n    tag_24:\n      mload(0x40)\n      dup1\n      swap2\n      sub\n      swap1\n      return\n        /* \"gasconversion.sol\":90:112  uint256 public balance */\n    tag_6:\n      callvalue\n      dup1\n      iszero\n      tag_25\n      jumpi\n      0x00\n      dup1\n      revert\n    tag_25:\n      pop\n      tag_26\n      tag_27\n      jump\t// in\n    tag_26:\n      mload(0x40)\n      tag_28\n      swap2\n      swap1\n      tag_16\n      jump\t// in\n    tag_28:\n      mload(0x40)\n      dup1\n      swap2\n      sub\n      swap1\n      return\n        /* \"gasconversion.sol\":173:300  function deposit() external payable {... */\n    tag_7:\n      tag_29\n      tag_30\n      jump\t// in\n    tag_29:\n      stop\n        /* \"gasconversion.sol\":360:466  function getBalanceInWei() external view returns (uint256) {... */\n    tag_14:\n        /* \"gasconversion.sol\":410:417  uint256 */\n      0x00\n        /* \"gasconversion.sol\":437:458  address(this).balance */\n      selfbalance\n        /* \"gasconversion.sol\":430:458  return address(this).balance */\n      swap1\n      pop\n        /* \"gasconversion.sol\":360:466  function getBalanceInWei() external view returns (uint256) {... */\n      swap1\n      jump\t// out\n        /* \"gasconversion.sol\":527:643  function getBalanceInGwei() external view returns (uint256) {... */\n    tag_19:\n        /* \"gasconversion.sol\":578:585  uint256 */\n      0x00\n        /* \"gasconversion.sol\":629:635  1 gwei */\n      0x3b9aca00\n        /* \"gasconversion.sol\":605:626  address(this).balance */\n      selfbalance\n        /* \"gasconversion.sol\":605:635  address(this).balance / 1 gwei */\n      tag_33\n      swap2\n      swap1\n      tag_34\n      jump\t// in\n    tag_33:\n        /* \"gasconversion.sol\":598:635  return address(this).balance / 1 gwei */\n      swap1\n      pop\n        /* \"gasconversion.sol\":527:643  function getBalanceInGwei() external view returns (uint256) {... */\n      swap1\n      jump\t// out\n        /* \"gasconversion.sol\":705:823  function getBalanceInEther() external view returns (uint256) {... */\n    tag_23:\n        /* \"gasconversion.sol\":757:764  uint256 */\n      0x00\n        /* \"gasconversion.sol\":808:815  1 ether */\n      0x0de0b6b3a7640000\n        /* \"gasconversion.sol\":784:805  address(this).balance */\n      selfbalance\n        /* \"gasconversion.sol\":784:815  address(this).balance / 1 ether */\n      tag_36\n      swap2\n      swap1\n      tag_34\n      jump\t// in\n    tag_36:\n        /* \"gasconversion.sol\":777:815  return address(this).balance / 1 ether */\n      swap1\n      pop\n        /* \"gasconversion.sol\":705:823  function getBalanceInEther() external view returns (uint256) {... */\n      swap1\n      jump\t// out\n        /* \"gasconversion.sol\":90:112  uint256 public balance */\n    tag_27:\n      sload(0x00)\n      dup2\n      jump\t// out\n        /* \"gasconversion.sol\":173:300  function deposit() external payable {... */\n    tag_30:\n        /* \"gasconversion.sol\":231:240  msg.value */\n      callvalue\n        /* \"gasconversion.sol\":220:227  balance */\n      0x00\n      dup1\n        /* \"gasconversion.sol\":220:240  balance += msg.value */\n      dup3\n      dup3\n      sload\n      tag_38\n      swap2\n      swap1\n      tag_11\n      jump\t// in\n    tag_38:\n      swap3\n      pop\n      pop\n      dup2\n      swap1\n      sstore\n      pop\n        /* \"gasconversion.sol\":173:300  function deposit() external payable {... */\n      jump\t// out\n        /* \"#utility.yul\":7:84   */\n    tag_39:\n        /* \"#utility.yul\":44:51   */\n      0x00\n        /* \"#utility.yul\":73:78   */\n      dup2\n        /* \"#utility.yul\":62:78   */\n      swap1\n      pop\n        /* \"#utility.yul\":7:84   */\n      swap2\n      swap1\n      pop\n      jump\t// out\n        /* \"#utility.yul\":90:270   */\n    tag_40:\n        /* \"#utility.yul\":138:215   */\n      0x4e487b7100000000000000000000000000000000000000000000000000000000\n        /* \"#utility.yul\":135:136   */\n      0x00\n        /* \"#utility.yul\":128:216   */\n      mstore\n        /* \"#utility.yul\":235:239   */\n      0x11\n        /* \"#utility.yul\":232:233   */\n      0x04\n        /* \"#utility.yul\":225:240   */\n      mstore\n        /* \"#utility.yul\":259:263   */\n      0x24\n        /* \"#utility.yul\":256:257   */\n      0x00\n        /* \"#utility.yul\":249:264   */\n      revert\n        /* \"#utility.yul\":276:467   */\n    tag_11:\n        /* \"#utility.yul\":316:319   */\n      0x00\n        /* \"#utility.yul\":335:355   */\n      tag_47\n        /* \"#utility.yul\":353:354   */\n      dup3\n        /* \"#utility.yul\":335:355   */\n      tag_39\n      jump\t// in\n    tag_47:\n        /* \"#utility.yul\":330:355   */\n      swap2\n      pop\n        /* \"#utility.yul\":369:389   */\n      tag_48\n        /* \"#utility.yul\":387:388   */\n      dup4\n        /* \"#utility.yul\":369:389   */\n      tag_39\n      jump\t// in\n    tag_48:\n        /* \"#utility.yul\":364:389   */\n      swap3\n      pop\n        /* \"#utility.yul\":412:413   */\n      dup3\n        /* \"#utility.yul\":409:410   */\n      dup3\n        /* \"#utility.yul\":405:414   */\n      add\n        /* \"#utility.yul\":398:414   */\n      swap1\n      pop\n        /* \"#utility.yul\":433:436   */\n      dup1\n        /* \"#utility.yul\":430:431   */\n      dup3\n        /* \"#utility.yul\":427:437   */\n      gt\n        /* \"#utility.yul\":424:460   */\n      iszero\n      tag_49\n      jumpi\n        /* \"#utility.yul\":440:458   */\n      tag_50\n      tag_40\n      jump\t// in\n    tag_50:\n        /* \"#utility.yul\":424:460   */\n    tag_49:\n        /* \"#utility.yul\":276:467   */\n      swap3\n      swap2\n      pop\n      pop\n      jump\t// out\n        /* \"#utility.yul\":473:591   */\n    tag_41:\n        /* \"#utility.yul\":560:584   */\n      tag_52\n        /* \"#utility.yul\":578:583   */\n      dup2\n        /* \"#utility.yul\":560:584   */\n      tag_39\n      jump\t// in\n    tag_52:\n        /* \"#utility.yul\":555:558   */\n      dup3\n        /* \"#utility.yul\":548:585   */\n      mstore\n        /* \"#utility.yul\":473:591   */\n      pop\n      pop\n      jump\t// out\n        /* \"#utility.yul\":597:819   */\n    tag_16:\n        /* \"#utility.yul\":690:694   */\n      0x00\n        /* \"#utility.yul\":728:730   */\n      0x20\n        /* \"#utility.yul\":717:726   */\n      dup3\n        /* \"#utility.yul\":713:731   */\n      add\n        /* \"#utility.yul\":705:731   */\n      swap1\n      pop\n        /* \"#utility.yul\":741:812   */\n      tag_54\n        /* \"#utility.yul\":809:810   */\n      0x00\n        /* \"#utility.yul\":798:807   */\n      dup4\n        /* \"#utility.yul\":794:811   */\n      add\n        /* \"#utility.yul\":785:791   */\n      dup5\n        /* \"#utility.yul\":741:812   */\n      tag_41\n      jump\t// in\n    tag_54:\n        /* \"#utility.yul\":597:819   */\n      swap3\n      swap2\n      pop\n      pop\n      jump\t// out\n        /* \"#utility.yul\":825:1005   */\n    tag_42:\n        /* \"#utility.yul\":873:950   */\n      0x4e487b7100000000000000000000000000000000000000000000000000000000\n        /* \"#utility.yul\":870:871   */\n      0x00\n        /* \"#utility.yul\":863:951   */\n      mstore\n        /* \"#utility.yul\":970:974   */\n      0x12\n        /* \"#utility.yul\":967:968   */\n      0x04\n        /* \"#utility.yul\":960:975   */\n      mstore\n        /* \"#utility.yul\":994:998   */\n      0x24\n        /* \"#utility.yul\":991:992   */\n      0x00\n        /* \"#utility.yul\":984:999   */\n      revert\n        /* \"#utility.yul\":1011:1196   */\n    tag_34:\n        /* \"#utility.yul\":1051:1052   */\n      0x00\n        /* \"#utility.yul\":1068:1088   */\n      tag_57\n        /* \"#utility.yul\":1086:1087   */\n      dup3\n        /* \"#utility.yul\":1068:1088   */\n      tag_39\n      jump\t// in\n    tag_57:\n        /* \"#utility.yul\":1063:1088   */\n      swap2\n      pop\n        /* \"#utility.yul\":1102:1122   */\n      tag_58\n        /* \"#utility.yul\":1120:1121   */\n      dup4\n        /* \"#utility.yul\":1102:1122   */\n      tag_39\n      jump\t// in\n    tag_58:\n        /* \"#utility.yul\":1097:1122   */\n      swap3\n      pop\n        /* \"#utility.yul\":1141:1142   */\n      dup3\n        /* \"#utility.yul\":1131:1166   */\n      tag_59\n      jumpi\n        /* \"#utility.yul\":1146:1164   */\n      tag_60\n      tag_42\n      jump\t// in\n    tag_60:\n        /* \"#utility.yul\":1131:1166   */\n    tag_59:\n        /* \"#utility.yul\":1188:1189   */\n      dup3\n        /* \"#utility.yul\":1185:1186   */\n      dup3\n        /* \"#utility.yul\":1181:1190   */\n      div\n        /* \"#utility.yul\":1176:1190   */\n      swap1\n      pop\n        /* \"#utility.yul\":1011:1196   */\n      swap3\n      swap2\n      pop\n      pop\n      jump\t// out\n\n    auxdata: 0xa2646970667358221220210ffff8b6b8c8379b5b516a7b7754e280e1ab6ebce511b8ba493a48418a9ec564736f6c63430008190033\n}\n",
				"bytecode": {
					"linkReferences": {},
					"object": "6080604052348015600e575f80fd5b506102998061001c5f395ff3fe60806040526004361061004d575f3560e01c806318b95fbf1461006e5780631fbd7a1a14610098578063359c09b5146100c2578063b69ef8a8146100ec578063d0e30db0146101165761006a565b3661006a57345f8082825461006291906101ab565b925050819055005b5f80fd5b348015610079575f80fd5b50610082610120565b60405161008f91906101ed565b60405180910390f35b3480156100a3575f80fd5b506100ac610127565b6040516100b991906101ed565b60405180910390f35b3480156100cd575f80fd5b506100d661013d565b6040516100e391906101ed565b60405180910390f35b3480156100f7575f80fd5b50610100610157565b60405161010d91906101ed565b60405180910390f35b61011e61015c565b005b5f47905090565b5f633b9aca00476101389190610233565b905090565b5f670de0b6b3a7640000476101529190610233565b905090565b5f5481565b345f8082825461016c91906101ab565b92505081905550565b5f819050919050565b7f4e487b71000000000000000000000000000000000000000000000000000000005f52601160045260245ffd5b5f6101b582610175565b91506101c083610175565b92508282019050808211156101d8576101d761017e565b5b92915050565b6101e781610175565b82525050565b5f6020820190506102005f8301846101de565b92915050565b7f4e487b71000000000000000000000000000000000000000000000000000000005f52601260045260245ffd5b5f61023d82610175565b915061024883610175565b92508261025857610257610206565b5b82820490509291505056fea2646970667358221220210ffff8b6b8c8379b5b516a7b7754e280e1ab6ebce511b8ba493a48418a9ec564736f6c63430008190033",
					"opcodes": "PUSH1 0x80 PUSH1 0x40 MSTORE CALLVALUE DUP1 ISZERO PUSH1 0xE JUMPI PUSH0 DUP1 REVERT JUMPDEST POP PUSH2 0x299 DUP1 PUSH2 0x1C PUSH0 CODECOPY PUSH0 RETURN INVALID PUSH1 0x80 PUSH1 0x40 MSTORE PUSH1 0x4 CALLDATASIZE LT PUSH2 0x4D JUMPI PUSH0 CALLDATALOAD PUSH1 0xE0 SHR DUP1 PUSH4 0x18B95FBF EQ PUSH2 0x6E JUMPI DUP1 PUSH4 0x1FBD7A1A EQ PUSH2 0x98 JUMPI DUP1 PUSH4 0x359C09B5 EQ PUSH2 0xC2 JUMPI DUP1 PUSH4 0xB69EF8A8 EQ PUSH2 0xEC JUMPI DUP1 PUSH4 0xD0E30DB0 EQ PUSH2 0x116 JUMPI PUSH2 0x6A JUMP JUMPDEST CALLDATASIZE PUSH2 0x6A JUMPI CALLVALUE PUSH0 DUP1 DUP3 DUP3 SLOAD PUSH2 0x62 SWAP2 SWAP1 PUSH2 0x1AB JUMP JUMPDEST SWAP3 POP POP DUP2 SWAP1 SSTORE STOP JUMPDEST PUSH0 DUP1 REVERT JUMPDEST CALLVALUE DUP1 ISZERO PUSH2 0x79 JUMPI PUSH0 DUP1 REVERT JUMPDEST POP PUSH2 0x82 PUSH2 0x120 JUMP JUMPDEST PUSH1 0x40 MLOAD PUSH2 0x8F SWAP2 SWAP1 PUSH2 0x1ED JUMP JUMPDEST PUSH1 0x40 MLOAD DUP1 SWAP2 SUB SWAP1 RETURN JUMPDEST CALLVALUE DUP1 ISZERO PUSH2 0xA3 JUMPI PUSH0 DUP1 REVERT JUMPDEST POP PUSH2 0xAC PUSH2 0x127 JUMP JUMPDEST PUSH1 0x40 MLOAD PUSH2 0xB9 SWAP2 SWAP1 PUSH2 0x1ED JUMP JUMPDEST PUSH1 0x40 MLOAD DUP1 SWAP2 SUB SWAP1 RETURN JUMPDEST CALLVALUE DUP1 ISZERO PUSH2 0xCD JUMPI PUSH0 DUP1 REVERT JUMPDEST POP PUSH2 0xD6 PUSH2 0x13D JUMP JUMPDEST PUSH1 0x40 MLOAD PUSH2 0xE3 SWAP2 SWAP1 PUSH2 0x1ED JUMP JUMPDEST PUSH1 0x40 MLOAD DUP1 SWAP2 SUB SWAP1 RETURN JUMPDEST CALLVALUE DUP1 ISZERO PUSH2 0xF7 JUMPI PUSH0 DUP1 REVERT JUMPDEST POP PUSH2 0x100 PUSH2 0x157 JUMP JUMPDEST PUSH1 0x40 MLOAD PUSH2 0x10D SWAP2 SWAP1 PUSH2 0x1ED JUMP JUMPDEST PUSH1 0x40 MLOAD DUP1 SWAP2 SUB SWAP1 RETURN JUMPDEST PUSH2 0x11E PUSH2 0x15C JUMP JUMPDEST STOP JUMPDEST PUSH0 SELFBALANCE SWAP1 POP SWAP1 JUMP JUMPDEST PUSH0 PUSH4 0x3B9ACA00 SELFBALANCE PUSH2 0x138 SWAP2 SWAP1 PUSH2 0x233 JUMP JUMPDEST SWAP1 POP SWAP1 JUMP JUMPDEST PUSH0 PUSH8 0xDE0B6B3A7640000 SELFBALANCE PUSH2 0x152 SWAP2 SWAP1 PUSH2 0x233 JUMP JUMPDEST SWAP1 POP SWAP1 JUMP JUMPDEST PUSH0 SLOAD DUP2 JUMP JUMPDEST CALLVALUE PUSH0 DUP1 DUP3 DUP3 SLOAD PUSH2 0x16C SWAP2 SWAP1 PUSH2 0x1AB JUMP JUMPDEST SWAP3 POP POP DUP2 SWAP1 SSTORE POP JUMP JUMPDEST PUSH0 DUP2 SWAP1 POP SWAP2 SWAP1 POP JUMP JUMPDEST PUSH32 0x4E487B7100000000000000000000000000000000000000000000000000000000 PUSH0 MSTORE PUSH1 0x11 PUSH1 0x4 MSTORE PUSH1 0x24 PUSH0 REVERT JUMPDEST PUSH0 PUSH2 0x1B5 DUP3 PUSH2 0x175 JUMP JUMPDEST SWAP2 POP PUSH2 0x1C0 DUP4 PUSH2 0x175 JUMP JUMPDEST SWAP3 POP DUP3 DUP3 ADD SWAP1 POP DUP1 DUP3 GT ISZERO PUSH2 0x1D8 JUMPI PUSH2 0x1D7 PUSH2 0x17E JUMP JUMPDEST JUMPDEST SWAP3 SWAP2 POP POP JUMP JUMPDEST PUSH2 0x1E7 DUP2 PUSH2 0x175 JUMP JUMPDEST DUP3 MSTORE POP POP JUMP JUMPDEST PUSH0 PUSH1 0x20 DUP3 ADD SWAP1 POP PUSH2 0x200 PUSH0 DUP4 ADD DUP5 PUSH2 0x1DE JUMP JUMPDEST SWAP3 SWAP2 POP POP JUMP JUMPDEST PUSH32 0x4E487B7100000000000000000000000000000000000000000000000000000000 PUSH0 MSTORE PUSH1 0x12 PUSH1 0x4 MSTORE PUSH1 0x24 PUSH0 REVERT JUMPDEST PUSH0 PUSH2 0x23D DUP3 PUSH2 0x175 JUMP JUMPDEST SWAP2 POP PUSH2 0x248 DUP4 PUSH2 0x175 JUMP JUMPDEST SWAP3 POP DUP3 PUSH2 0x258 JUMPI PUSH2 0x257 PUSH2 0x206 JUMP JUMPDEST JUMPDEST DUP3 DUP3 DIV SWAP1 POP SWAP3 SWAP2 POP POP JUMP INVALID LOG2 PUSH5 0x6970667358 0x22 SLT KECCAK256 0x21 0xF SELFDESTRUCT 0xF8 0xB6 0xB8 0xC8 CALLDATACOPY SWAP12 JUMPDEST MLOAD PUSH11 0x7B7754E280E1AB6EBCE511 0xB8 0xBA BLOBHASH GASPRICE BASEFEE COINBASE DUP11 SWAP15 0xC5 PUSH5 0x736F6C6343 STOP ADDMOD NOT STOP CALLER "
				},
				"gasEstimates": {
					"creation": {
						"codeDepositCost": "133000",
						"executionCost": "175",
						"totalCost": "133175"
					},
					"external": {
						"balance()": "2468",
						"deposit()": "infinite",
						"getBalanceInEther()": "infinite",
						"getBalanceInGwei()": "infinite",
						"getBalanceInWei()": "312"
					}
				},
				"methodIdentifiers": {
					"balance()": "b69ef8a8",
					"deposit()": "d0e30db0",
					"getBalanceInEther()": "359c09b5",
					"getBalanceInGwei()": "1fbd7a1a",
					"getBalanceInWei()": "18b95fbf"
				}
			},
			"storageLayout": {
				"storage": [
					{
						"astId": 3,
						"contract": "gasconversion.sol:EtherReceiver",
						"label": "balance",
						"offset": 0,
						"slot": "0",
						"type": "t_uint256"
					}
				],
				"types": {
					"t_uint256": {
						"encoding": "inplace",
						"label": "uint256",
						"numberOfBytes": "32"
					}
				}
			},
			"userdoc": {
				"kind": "user",
				"methods": {},
				"version": 1
			}
		}
	}
}